:100000000C9422040C9434040C9434040C94F127C2
:100010000C943E300C9434040C9434040C9434044A
:100020000C9434040C9434040C9434040C94701523
:100030000C9434040C9434040C9434040C94340460
:100040000C9489170C9434040C9404130C94C61269
:100050000C9434040C9434040C9434040C94340440
:100060000C9434040C9434049F0A57125712A90AB2
:10007000B60AC30AD00A5712D40A5712E20A571214
:10008000EC0AF60A270B571257125712000B0D0BEA
:100090001A0B451156117511561179118C117F11DA
:1000A00085113F21452148214B21502158216221B2
:1000B000CE21CE21CE216A216D2176217F21CE2134
:1000C000CE21CE21CE21CE21CE21872191219D216D
:1000D000A521A821B121BA21C021A72BAA2BAF2B82
:1000E000B22BB52BB82BBB2BBE2BC12BC42BC72BD4
:1000F000D32BD32BD32BD32BD32BD32BD32BD32B10
:10010000CD2BCA2BD02B1A2C1D2C202C232C262C8B
:10011000292C2C2C2F2C084AD73B3BCE016E84BCBB
:10012000BFFDC12F3D6C74319ABD56833DDA3D0051
:10013000C77F11BED9E4BB4C3E916BAAAABE00009A
:1001400000803F05A84CCDB2D44EB93836A9020C78
:1001500050B9918688083CA6AAAA2ABE0000008051
:100160003F003E0D0A002C4C696D3A002C52583A63
:10017000002C4275663A002C002C57506F733A00E1
:100180002C002C4D506F733A003C446F6F72003C52
:10019000436865636B003C416C61726D003C486F65
:1001A0006D65003C486F6C64003C52756E003C49C4
:1001B000646C65005D0D0A005B302E396A5F7075F6
:1001C0006E63682E32303135313032333A000D0AE9
:1001D000003D00244E005D0D0A0020460020540022
:1001E000204D3800204D3900204D3500204D340081
:1001F000204D3300204D3200204D3100204D300085
:100200002047393400204739330020473931002056
:100210004739300020473230002047323100204734
:10022000313900204731380020473137002047005E
:100230004733382E004738300047330047320047F5
:1002400031004730005B005D0D0A005B544C4F3AB3
:10025000005D0D0A002C005B4739323A005D0D0A43
:10026000002C003A003330003238005B47005D0D4F
:100270000A003A002C005B5052423A00290D0A0055
:10028000206D61782074726176656C2C206D6D0034
:1002900020616363656C2C206D6D2F7365635E3226
:1002A00000206D617820726174652C206D6D2F6D5A
:1002B000696E002C20737465702F6D6D007A007963
:1002C0000078002028003D0024002028686F6D6918
:1002D0006E672070756C6C2D6F66662C206D6D29B5
:1002E0000D0A002028686F6D696E67206465626F73
:1002F000756E63652C206D736563290D0A24323792
:100300003D002028686F6D696E67207365656B2CF2
:10031000206D6D2F6D696E290D0A2432363D002047
:1003200028686F6D696E6720666565642C206D6D49
:100330002F6D696E290D0A2432353D00290D0A24DE
:1003400032343D002028686F6D696E6720646972E1
:1003500020696E76657274206D61736B3A00202897
:10036000686F6D696E67206379636C652C20626FBE
:100370006F6C290D0A2432333D00202868617264B5
:10038000206C696D6974732C20626F6F6C290D0A83
:100390002432323D002028736F6674206C696D69C9
:1003A00074732C20626F6F6C290D0A2432313D006A
:1003B00020287265706F727420696E636865732C93
:1003C00020626F6F6C290D0A2432303D00202861B5
:1003D000726320746F6C6572616E63652C206D6D45
:1003E000290D0A2431333D0020286A756E63746933
:1003F0006F6E20646576696174696F6E2C206D6D17
:10040000290D0A2431323D00290D0A2431313D00E5
:100410002028737461747573207265706F72742014
:100420006D61736B3A00202870726F62652070698D
:100430006E20696E766572742C20626F6F6C290D68
:100440000A2431303D0020286C696D697420706980
:100450006E7320696E766572742C20626F6F6C29E2
:100460000D0A24363D0020287374657020656E6186
:10047000626C6520696E766572742C20626F6F6C99
:10048000290D0A24353D00290D0A24343D00202879
:1004900064697220706F727420696E766572742060
:1004A0006D61736B3A00290D0A24333D00202873D7
:1004B00074657020706F727420696E766572742036
:1004C0006D61736B3A002028737465702069646CE9
:1004D000652064656C61792C206D736563290D0A54
:1004E00024323D002028737465702070756C73652C
:1004F0002C2075736563290D0A24313D0024303D9D
:10050000002424202876696577204772626C207366
:10051000657474696E6773290D0A2423202876692F
:100520006577202320706172616D6574657273292F
:100530000D0A2447202876696577207061727365FB
:1005400072207374617465290D0A24492028766924
:100550006577206275696C6420696E666F290D0A83
:10056000244E2028766965772073746172747570E3
:1005700020626C6F636B73290D0A24783D76616C81
:100580007565202873617665204772626C207365FB
:100590007474696E67290D0A244E783D6C696E6526
:1005A000202873617665207374617274757020629F
:1005B0006C6F636B290D0A24432028636865636BA5
:1005C0002067636F6465206D6F6465290D0A245888
:1005D00020286B696C6C20616C61726D206C6F639C
:1005E0006B290D0A2448202872756E20686F6D698A
:1005F0006E67206379636C65290D0A7E2028637914
:10060000636C65207374617274290D0A2120286659
:1006100065656420686F6C64290D0A3F2028637546
:100620007272656E7420737461747573290D0A6338
:1006300074726C2D7820287265736574204772621D
:100640006C290D0A000D0A4772626C20302E396A3F
:100650005F70756E6368205B27242720666F7220A9
:1006600068656C705D0D0A005D0D0A00526573745B
:100670006F72696E672064656661756C7473005093
:10068000676D20456E6400436865636B20446F6F3F
:10069000720044697361626C656400456E61626CEE
:1006A00065640043617574696F6E3A20556E6C6FB6
:1006B000636B656400272448277C2724582720740F
:1006C0006F20756E6C6F636B005265736574207478
:1006D0006F20636F6E74696E7565005B000D0A00B4
:1006E000486F6D696E67206661696C0050726F6259
:1006F00065206661696C0041626F72742064757276
:10070000696E67206379636C6500536F6674206C53
:10071000696D69740048617264206C696D69740068
:10072000414C41524D3A20000D0A00496E76616CF1
:1007300069642067636F64652049443A00556E64BC
:100740006566696E656420666565642072617465BE
:1007500000556E737570706F7274656420636F6D91
:100760006D616E64004D6F64616C2067726F7570AF
:100770002076696F6C6174696F6E004C696E6520DC
:100780006F766572666C6F7700486F6D696E672073
:100790006E6F7420656E61626C656400416C61729D
:1007A0006D206C6F636B004E6F742069646C650024
:1007B000454550524F4D2072656164206661696CF9
:1007C0002E205573696E672064656661756C74735D
:1007D0000056616C7565203C20332075736563009D
:1007E00053657474696E672064697361626C6564D3
:1007F0000056616C7565203C203000496E76616C56
:1008000069642073746174656D656E74004261641F
:10081000206E756D62657220666F726D6174004541
:100820007870656374656420636F6D6D616E6420BC
:100830006C6574746572006572726F723A20006F35
:100840006B0D0A0011241FBECFEFD8E0DEBFCDBF75
:1008500026E0A0E0B1E001C01D92AE3CB207E1F796
:100860000E9436040C94F0360C9400000E949412FE
:100870000E94DA210E9407180E942D308DE1E7E2E4
:10088000F5E0DF011D928A95E9F781E08093270565
:1008900078948091BE0684FF03C081E08093280590
:1008A0000E9462130E945B080E9483120E945632CB
:1008B0000E9487120E94A0270E948F2B0E94202353
:1008C0000E94DB170E9470260E946D081092270577
:1008D0001092440510924605109229050E94921428
:1008E000DFCFEF92FF921F93CF93DF9300D000D022
:1008F000CDB7DEB77C01122F8091BE0685FF0BC0FD
:10090000C70149835A836B837C830E94FE297C81C3
:100910006B815A81498180912805823031F1498368
:100920005A836B837C830E94671380912705811112
:100930001CC00E946F2349815A816B817C8188236E
:1009400039F00E94891449815A816B817C81E7CFFB
:10095000212FC7010F900F900F900F90DF91CF9133
:100960001F91FF90EF900C9477230F900F900F90B2
:100970000F90DF91CF911F91FF90EF9008952F92EC
:100980003F924F925F926F927F928F929F92AF921F
:10099000BF92CF92DF92EF92FF920F931F93CF936C
:1009A000DF93CDB7DEB7E7970FB6F894DEBF0FBE83
:1009B000CDBF9C8B8B8B1B013A0109871A872B8734
:1009C0003C87AF8A2D961FAD2D972E962FAD2E9773
:1009D000298B2F963FAD2F973D8B84E0889EA001F9
:1009E00011245A834983AB89BC89A40FB51FB98FE1
:1009F000A88F460D571D5B8F4A8FFA01808091802A
:100A0000A280B3802D913D914D915C91C501B401BF
:100A10000E949E326C8F7D8F8E8F9F8FF4E01F9F80
:100A2000800111242B893C89200F311F39A328A371
:100A3000A301400F511F5BA34AA3DA014D905D90C3
:100A40006D907C90F9012081318142815381C301F5
:100A5000B2010E949E326CA37DA38EA39FA3A50129
:100A6000940150582D873E874F87588BD301C20180
:100A7000B0588D839E83AF83B887E981FA81E20DF8
:100A8000F31D2C8D3D8D4E8D5F8D60817181828136
:100A900093810E949D322B013C01F101E00FF11F77
:100AA0002CA13DA14EA15FA16081718182819381C2
:100AB0000E949D324B015C01A30192016D857E85F0
:100AC0008F8598890E94B53569837A838B839C834F
:100AD000A50194016D817E818F8198850E94B53535
:100AE0009B01AC0169817A818B819C810E949E323D
:100AF00069837A838B839C83A50194016D857E85B0
:100B00008F8598890E94B5354B015C01A301920144
:100B10006D817E818F8198850E94B5359B01AC01E6
:100B2000C501B4010E949D3229813A814B815C81CB
:100B30000E9411332B013C019D89992399F02DEBE3
:100B400037E346E055EBC301B2010E947A3587FDD9
:100B50001DC02BED3FE049EC50E4C301B2010E94FF
:100B60009D3212C02DEB37E346E055E3C301B201DD
:100B70000E947733181654F02BED3FE049EC50E417
:100B8000C301B2010E949E322B013C018090BA0643
:100B90009090BB06A090BC06B090BD0629853A8512
:100BA0004B855C85CA01B9010E949E32A501940162
:100BB0000E949D329B01AC01C501B4010E94B53574
:100BC0000E9442364B015C0120E030E040E05FE3F0
:100BD000C301B2010E94B53529853A854B855C85F4
:100BE0000E94B5359F77A50194010E947E330E9433
:100BF00054340E94EB337E8B6D8BDB01AB2B09F4FD
:100C000086C14B01A12CB12CBF89BB2361F0C5016A
:100C1000B4010E9417349B01AC01C701B6010E94C8
:100C2000B5356B017C01C501B4010E9417344B013D
:100C30005C019B01AC01C301B2010E947E33698754
:100C40007A878B879C87F989E4E0FE9FC001112495
:100C50002B893C89280F391F3A8B298BF101E80F2A
:100C6000F91FD9012D913D914D915C916081718168
:100C7000828193810E949D32A50194010E947E335E
:100C80006CAB7DAB8EAB9FAB29853A854B855C8584
:100C9000CA01B9010E94B5359B01AC0160E070E06A
:100CA00080E090E40E949D324B015C012BEA3AEA1D
:100CB0004AE25EE369857A858B859C850E94B5351D
:100CC0002B013C0120E030E040E850E4C501B401D4
:100CD0000E949E329B01AC01C301B2010E94B53556
:100CE00068A779A78AA79BA720E030E040E05FE3F0
:100CF000C501B4010E94B5356CA77DA78EA79FA73B
:100D0000198201E010E0ED89FE890E171F0709F432
:100D1000FEC0B981BC3008F04AC02CA53DA54EA547
:100D20005FA56D817E818F8198850E94B5354B01CD
:100D30005C0128A539A54AA55BA56D857E858F85B3
:100D400098890E94B535A50194010E949E32B62E65
:100D5000A72E982E892E2CA53DA54EA55FA56D85A5
:100D60007E858F8598890E94B5352B013C0128A589
:100D700039A54AA55BA56D817E818F8198850E94EA
:100D8000B5359B01AC01C301B2010E949D326D8754
:100D90007E878F87988BE981EF5FE9838B2D9A2D72
:100DA000A92DB82D8D839E83AF83B8876EC0B801FF
:100DB00080E090E00E94173429853A854B855C8558
:100DC0000E94B5354B015C010E947B336D837E83AD
:100DD0008F839887C501B4010E9438364B015C01AE
:100DE000EA8DFB8D80819181A281B3819C01AD014F
:100DF000505829833A834B835C83AAA1BBA18D9170
:100E00009D910D90BC91A02D88AB99ABAAABBBABCB
:100E10002D813E814F81588569817A818B819C81AA
:100E20000E94B5352B013C01A501940168A979A95F
:100E30008AA99BA90E94B5359B01AC01C301B201EF
:100E40000E949E326D877E878F87988BA5019401C3
:100E500069817A818B819C810E94B5354B015C014F
:100E60002D813E814F81588568A979A98AA99BA9BE
:100E70000E94B5359B01AC01C501B4010E949D32B1
:100E80006D837E838F83988719822D853E854F855C
:100E900058896C8D7D8D8E8D9F8D0E949E32E88D40
:100EA000F98D60837183828393832D813E814F818D
:100EB00058856CA17DA18EA19FA10E949E32A8A100
:100EC000B9A16D937D938D939C9313972CA93DA904
:100ED0004EA95FA9E989FA89608171818281938134
:100EE0000E949E32A989BA896D937D938D939C93BC
:100EF00013972F89B701A6018B899C890E947104E1
:100F000080912705811121C00F5F1F4FFCCE2F89D3
:100F1000B701A601C101E7960FB6F894DEBF0FBE78
:100F2000CDBFDF91CF911F910F91FF90EF90DF9098
:100F3000CF90BF90AF909F908F907F906F905F9079
:100F40004F903F902F900C947104E7960FB6F89451
:100F5000DEBF0FBECDBFDF91CF911F910F91FF90EC
:100F6000EF90DF90CF90BF90AF909F908F907F9049
:100F70006F905F904F903F902F9008958F929F9227
:100F8000AF92BF92CF92DF92EF92FF924B015C0142
:100F900080912805823009F447C020E030E040EA23
:100FA00051E4C501B4010E94B5350E9454340E9439
:100FB000EB336B017C010E94141520E030E04AE71E
:100FC00054E4C501B4010E94B5354B015C0182E3D4
:100FD0008C9DB0018D9D700D112480E090E00E94E9
:100FE00017349B01AC01C501B4010E949D320E94DF
:100FF00054340E94EB33CB010E946427C114D10406
:1010000099F00E94671321E0C21AD1088091270548
:1010100081110AC08FEF90E722E08150904020407C
:10102000E1F700C00000EACFFF90EF90DF90CF9093
:10103000BF90AF909F908F9008950E94952784E075
:101040000E94252883E00E9425280E946713809132
:101050002705811104C00E946D080C94A0270895F3
:101060008091440584FD26C09FB7F8948091440583
:101070008061809344059FBF0E9484120E94881261
:1010800080912805982F9C7021F49091290591302A
:1010900089F49FB7843029F4F894809146058062E2
:1010A00004C0F894809146058860809346059FBFF0
:1010B0000C944515089580E4E7E4F5E0DF011D9206
:1010C0008A95E9F76BE675E080E00E949F20811128
:1010D00003C087E00C94912B08956AE275E08FE5D8
:1010E00095E00C942A322F923F924F925F926F922A
:1010F0007F928F929F92AF92BF92CF92DF92EF92A8
:10110000FF920F931F93CF93DF93CDB7DEB7AB97CB
:101110000FB6F894DEBF0FBECDBF98A38F8F8AE3C2
:10112000E7E8F5E0DF011D928A95E9F78BE0E7E457
:10113000F5E0A8E8B5E001900D928A95E1F71D8EE3
:10114000212C312CA12CB12C19A2512C1E8E6624DD
:101150006394712C58E0452E9924939465E0862E73
:101160008D8DEF8DF8A1E80FF11D0081002309F4AA
:1011700091C29FEB900F9A3110F00C9449128F5F3F
:101180008D8FAE01475E5F4FBE01635E7F4F8F8DD7
:1011900098A10E94B226882311F40C944B12C98C9A
:1011A000DA8CEB8CFC8CC701B6010E9483360E945E
:1011B000EB33162F70E080E090E00E9419349B0121
:1011C000AC01C701B6010E949D3220E030E048EC3E
:1011D00052E40E94B5350E9418360E94EB33073462
:1011E00021F00D3409F450C199C1183209F432C10B
:1011F000E8F4143160F4113108F0D7C0143009F468
:101200005AC008F48EC01A30D9F10C9457121C3110
:10121000B9F128F4163108F4F7C00C9457121E31B6
:1012200079F1163209F47DC00C9457121D3309F47C
:101230000BC1A8F4153309F461C040F41B3209F462
:10124000ECC0113309F4E9C00C9457121C3310F0B0
:101250000C945712165310938E0589E000C11C356B
:1012600040F41A3508F0B0C0103509F49BC00C9456
:1012700057121C3529F01F3508F4BDC00C945712C5
:101280006115710531F4BE8DB1110C944D12E1E080
:10129000EE8F1C3199F038F4143069F01A3009F0EF
:1012A000DBC082E02CC0153349F11C3559F11E31E9
:1012B00009F0D2C013C090928705CEC061157105A8
:1012C00049F06A30710511F00C94571224E0209314
:1012D000870509C0F3E0F093870505C06115710526
:1012E00021F48092870580E0BFC06A30710511F05B
:1012F0000C94571236E030938705F5CF87E0809342
:101300008705AAC06115710549F06A30710511F0B1
:101310000C94571299E090938705E5CF409287058A
:10132000E2CFAE8DA1110C944D12B2E0BE8F1230FF
:1013300089F028F4112359F0113081F08FC0163252
:1013400081F0103579F1133009F088C007C0109290
:10135000880584C0EE8DE093880580C010938805D1
:101360007DC06E317105B1F048F46431710511F042
:101370000C945712F4E0F093880512C0683271059E
:1013800061F06233710511F00C94571237E030931D
:10139000880506C08092880503C026E02093880552
:1013A00081E062C04092880559C0123129F01331A2
:1013B00039F010928C0502C090928C0582E04FC0EB
:1013C00082E080938C054BC06115710549F41A3594
:1013D00019F410928B0502C090928B0583E044C0F3
:1013E0006A30710511F00C9457121A3511F40C94EF
:1013F000571284E039C01D3519F49092890502C056
:101400001092890585E02BC0143119F490928A0559
:1014100002C010928A0586E022C08E8D81110C9444
:101420004D12113331F410928D0588E093E09E8FB8
:101430001BC06A30710511F00C94571290928D0503
:1014400088E0A3E0AE8F10C0672B11F00C94571208
:101450008AE00AC087E003C080E001C081E0672B1A
:1014600019F087E10C946A12F30102C0EE0FFF1F1E
:101470008A95E2F7CF019F012A213B21232B09F412
:101480004AC085E10C946A12672B59F7163018F49C
:10149000133090F01EC01E31C1F030F488EF810F80
:1014A000823030F10C945712143611F00C9457120C
:1014B000909292058EE027C0123039F01E3129F04B
:1014C000111120C090928F051DC082E080938F057E
:1014D00019C0143029F0153039F09092910506C0EA
:1014E00082E08093910502C0109291058CE00BC0C0
:1014F000193021F082E08093900502C0109290058F
:101500008DE001C08BE0930102C0220F331F8A954A
:10151000E2F7C901B1CFA82AB92A22CE802F992794
:1015200087FD9095A92FB92FFC01E654F109E5310B
:10153000F10508F0BCC7EC5CFF4F0C94D036C092AC
:101540009305D0929405E0929505F092960580E07F
:101550007FC0C0929705D0929805E0929905F092CD
:101560009A0539A1316039A381E072C0C0929B0510
:10157000D0929C05E0929D05F0929E0589A1826023
:1015800089A382E065C0C0929F05D092A005E09239
:10159000A105F092A20599A1946099A383E058C097
:1015A0001093A30584E054C0C701B6010E94E6333E
:1015B0006093A4057093A5058093A6059093A70555
:1015C00085E046C0C092A805D092A905E092AA0580
:1015D000F092AB0586E03CC0C092AC05D092AD0560
:1015E000E092AE05F092AF0587E032C0C092B00540
:1015F000D092B105E092B205F092B30588E028C020
:10160000C092B505D092B605E092B705F092B80544
:10161000A52DA1605A2E8AE01BC0C092B905D092B8
:10162000BA05E092BB05F092BC05B52DB2605B2E09
:101630008BE00EC0C092BD05D092BE05E092BF0502
:10164000F092C005E52DE4605E2E8CE001C089E0DB
:101650008301082E02C0000F111F0A94E2F79801BF
:1016600022213321232B09F01AC721E633E002C0DF
:10167000359527958A95E2F720FF09C020E030E0F4
:10168000A901C701B6010E94773387FD0AC7202A46
:10169000312A66CD552029F03E8D311102C082E0FD
:1016A0008E8F25FE0EC08091A4059091A505A09176
:1016B000A605B091A70580389649A849B1050CF058
:1016C000F2C680918905813031F4FE8DF230A1F5AA
:1016D00020FEF3C631C08091480581112DC020FE47
:1016E0001BC080918A05813039F523E333E34BEC4D
:1016F00051E46091930570919405809195059091C6
:1017000096050E94B5356093930570939405809378
:1017100095059093960510C08091560590915705B8
:10172000A0915805B0915905809393059093940525
:10173000A0939505B093960530FC10C0809152059A
:1017400090915305A0915405B09155058093B00533
:101750009093B105A093B205B093B305809187052E
:10176000813031F426FC02C08CE1B4C6E89426F83E
:1017700080918C05882341F0813061F019A682E0C8
:1017800088A791E09FA30BC022E029A731E038A7EA
:101790001FA205C0A1E0A9A718A6B2E0BFA380912F
:1017A0008A05813021F0EE8DE33091F52AC035EBCA
:1017B000E32E35E0F32E00E010E0C52CD12CC6015D
:1017C000002E02C0959587950A94E2F780FF10C01D
:1017D00023E333E34BEC51E4D7016D917D918D917F
:1017E0009C910E94B535F701608371838283938356
:1017F0000F5F1F4FF4E0EF0EF11C03301105F9F6F7
:10180000D2CF80918D05813019F424E052124DC65B
:101810008CE0EBE6F5E0DE011D9601900D928A95D5
:10182000E1F7B1FC09C0309187053F8F3230B9F044
:10183000383009F4B0C015C180918E05873010F0A2
:101840008DE148C690914D05981769F3BE01635F1D
:101850007F4F0E949F20882309F439C6E4CF51109E
:1018600002C08AE137C6C10180759927892B09F426
:101870007BCF6091A8057091A9058091AA059091F0
:10188000AB050E9483360E94EB336730C8F6809127
:10189000A305843129F0823009F009C627FC07C668
:1018A0008FEA2822662319F061506F8F03C0909150
:1018B0008E059F8FBE016F5F7F4F8F8D0E949F208F
:1018C000882309F404C64090A305609083057090B6
:1018D00084058090850590908605DE0111967D0136
:1018E00095EBC92E95E0D92E2FE5A22E25E0B22E3C
:1018F00000E010E0E52DF0E0FEA3EDA38DA19EA198
:10190000002E02C0959587950A94E2F780FF33C0B8
:10191000F4E14F1226C0D50158962D913D914D917D
:101920005C915B976D917D918D919C910E949D3210
:10193000F60120813181428153810E949D32D7017D
:101940006D937D938D939C9313970230A1F4A40122
:1019500093010E949D32F701608371838283938398
:101960000AC0F60180819181A281B381F701808351
:101970009183A283B3830F5F1F4FF4E0EF0EF11C3E
:1019800024E0C20ED11C34E0A30EB11C03301105BB
:1019900009F0B4CF0FC1552009F463CF60908305DF
:1019A00070908405809085059090860505EB15E084
:1019B0008FE5C82E85E0D82E5E018DE0A80EB11C03
:1019C000E12CF12CA52DB0E0B8A3AF8F8F8D98A19D
:1019D0000E2C02C0959587950A94E2F780FF26C0E9
:1019E000F5012081318142815381D6016D917D9134
:1019F0008D919C910E949D32F8012081318142811C
:101A000053810E949D32D8016D937D938D939C9359
:101A10001397B2E0EB1214C0A40193010E949D320F
:101A2000F80160837183828393830AC0F601808DFD
:101A3000918DA28DB38DF80180839183A283B383AE
:101A4000FFEFEF1AFF0A0C5F1F4F24E0C20ED11CFC
:101A500034E0A30EB11C83E0E816F10409F0B6CF20
:101A6000A8C09E8D933059F4AF8DA53009F48FC076
:101A7000A73009F499C0A33009F09BC080C055205D
:101A800099F340908B058090830590908405A090F9
:101A90008505B09086050FE5C02E05E0D02E05EB3C
:101AA00015E03E01BDE06B0E711CE12CF12CE52D23
:101AB000F0E0FEA3EDA38DA19EA10E2C02C0959592
:101AC00087950A94E2F780FD0BC0F6018081918131
:101AD000A281B381F80180839183A283B3833EC046
:101AE000FF8DF730D9F1411028C0D60158962D91BD
:101AF0003D914D915C915B97F30160817181828191
:101B000093810E949E32D8012D913D914D915C911F
:101B10000E949E32F8016083718382839383F2E096
:101B2000EF121CC0A50194010E949E32D8016D9352
:101B30007D938D939C93139711C0F6012081318181
:101B400042815381D8016D917D918D919C910E942C
:101B50009E32F8016083718382839383FFEFEF1AD3
:101B6000FF0A24E0C20ED11C0C5F1F4F34E0630E4D
:101B7000711C83E0E816F10409F09DCF75CF511078
:101B800001C01E8EBE016F5F7F4F86E007C05110FF
:101B900001C01E8EBE016F5F7F4F87E00E949F20B5
:101BA000882309F494C405C080918805823008F028
:101BB00080C41F8E10918805183041F4552009F417
:101BC000B2C19E8D913009F076C489C2AE8DA2302B
:101BD00009F0A9C11123D9F020E030E0A9016091FA
:101BE00093057091940580919505909196050E94BA
:101BF0007733882309F461C4143028F4123058F480
:101C0000113029F06CC2183008F44CC168C2511070
:101C100066C21E8E8BC1552009F423CEFFA1EF2F83
:101C2000F0E0FEA3EDA338A5232F30E03BA72AA7C1
:101C300081E090E03C0108A402C0660C771C0A9485
:101C4000E2F70FA002C0880F991F0A94E2F7682AF2
:101C5000792A852D90E086219721892B09F42FC4BC
:101C6000EE0FFF1FEE0FFF1FE957FA4FADA1BEA108
:101C7000AA0FBB1FAA0FBB1FA15ABA4F2D913D91AE
:101C80004D915C9166A577A580A991A90E949D328E
:101C90006B017C01EAA5FBA5EE0FFF1FEE0FFF1FF6
:101CA000E957FA4FAAA5BBA5AA0FBB1FAA0FBB1FD6
:101CB000A15ABA4F2D913D914D915C9166A577A5A2
:101CC00080A991A90E949D324B015C0127FE40C072
:101CD000E89427F82091B5053091B6054091B705F5
:101CE0005091B80560915F05709160058091610524
:101CF000909162050E94773381111CC12091B90532
:101D00003091BA054091BB055091BC0560916305C7
:101D10007091640580916505909166050E94773306
:101D2000811108C12091BD053091BE054091BF05CC
:101D30005091C005609167057091680580916905B3
:101D400090916A050E9477338111F4C081E2C2C389
:101D5000F9A14F2E512C64207520672809F4B1C3D6
:101D600021EF222280918A05813009F456C00AA50C
:101D70001BA5000F111F000F111F09561A4FD80184
:101D80002D913D914D915C91C501B4010E949D3210
:101D90002B013C01ADA0BEA0AA0CBB1CAA0CBB1C15
:101DA000F501E956FA4F5F0120813181428153816B
:101DB000C701B6010E949D32A30192010E946F27C4
:101DC0006B017C01D8012D913D914D915C91F50104
:101DD00060817181828193810E946F274B015C0138
:101DE0006093AC057093AD058093AE059093AF05FD
:101DF0009B01AC01C701B6010E949D326B017C01C1
:101E0000E894F7F82AE037ED43EA5BE3C701B6014F
:101E10000E947A3518164CF162C187E9682E85E078
:101E2000782E00E010E0C201002E02C09595879543
:101E30000A94E2F780FF10C023E333E34BEC51E454
:101E4000D3016D917D918D919C910E94B535F301E7
:101E500060837183828393830F5F1F4FF4E06F0E63
:101E6000711C03301105F9F682CF20E030E040E02C
:101E70005FE3C701B6010E947A3518160CF466CFED
:101E80002FE632E143E85AE3C501B4010E94B535BB
:101E90009B01AC01C701B6010E947A3518160CF4FB
:101EA00055CF1DC1552009F4DCCC2091B5053091EA
:101EB000B6054091B7055091B80560915F057091E6
:101EC000600580916105909162050E9477338111D0
:101ED00006C12091B9053091BA054091BB055091DA
:101EE000BC056091630570916405809165059091D2
:101EF00066050E9477338111F2C02091BD053091B3
:101F0000BE054091BF055091C00560916705709175
:101F100068058091690590916A050E94773388234E
:101F200009F414CFDCC02E8D2111D9C0C1018E7DE2
:101F30009C7FD8C080918A058130B1F423E333E3DC
:101F40004BEC51E46091AC057091AD058091AE050C
:101F50009091AF050E94B5356093AC057093AD05C7
:101F60008093AE059093AF054090AC055090AD05C1
:101F70006090AE057090AF0520E030E040E850E49E
:101F8000C301B2010E94B535A30192010E94B5358B
:101F90002B013C01A7019601C701B6010E94B5358E
:101FA0009B01AC01C301B2010E949D322B013C0197
:101FB000A5019401C501B4010E94B5359B01AC0196
:101FC000C301B2010E949D322B013C0120E030E0B0
:101FD000A9010E94773387FD7CC2C301B2010E9430
:101FE00042362B013C01A5019401C701B6010E94B4
:101FF0006F279B01AC01C301B20190580E947E3350
:102000002B013C0180918805833021F477FA70948C
:1020100077F870948091AC059091AD05A091AE05D4
:10202000B091AF0589A39AA3ABA3BCA320E030E095
:10203000A901BC01CD010E94773387FF11C077FA57
:10204000709477F8709489A19AA1ABA1BCA1B05803
:102050008093AC059093AD05A093AE05B093AF050A
:102060000DA11EA1000F111F000F111F09561A4FBD
:10207000A3019201C501B4010E94B5359B01AC01D9
:10208000C701B6010E949D3220E030E040E05FE3EE
:102090000E94B535D8016D937D938D939C931397D2
:1020A0000AA51BA5000F111F000F111F09561A4F7B
:1020B000A3019201C701B6010E94B5359B01AC0195
:1020C000C501B4010E949E3220E030E040E05FE3B1
:1020D0000E94B535F8016083718382839383C101C7
:1020E0008E7D907E892B09F0EEC18091A4059091A0
:1020F000A505A091A605B091A70580935B059093D7
:102100005C05A0935D05B0935E0580918905809381
:1021100048058091930590919405A0919505B09103
:1021200096058093560590935705A0935805B09354
:102130005905C090B005D090B105E090B205F0907F
:10214000B305A701960160915205709153058091E6
:102150005405909155050E9477338823C1F08091F2
:102160005005882321F0B701A6010E9486128091B4
:10217000B0059091B105A091B205B091B3058093DF
:10218000520590935305A0935405B0935505809143
:10219000B40580935A058091910590915005981748
:1021A00071F0409152055091530560915405709122
:1021B00055050E948612809191058093500580916B
:1021C000900590914F05981731F00E948A128091E6
:1021D000900580934F0580918705813051F460917F
:1021E000A8057091A9058091AA059091AB050E9460
:1021F000BE0780918C0580934B0580918A05809362
:1022000049053E8D3330F9F480918D0580934C055E
:10221000813089F48091BD059091BE05A091BF05E4
:10222000B091C0058093830590938405A0938505A4
:10223000B093860508C01092830510928405109211
:1022400085051092860580918E0590914D05981711
:1022500059F080934D058CE0FE013D96ABE6B5E06C
:1022600001900D928A95E1F780918B0580934A0544
:102270008091870590E0FC013297E830F10508F085
:102280004BC0E75BFF4F0C94D036BE016F5F7F4FB2
:102290008F8D0E94531F80914D059F8D89133CC0E7
:1022A0008CE0FE013196ABE6B5E01AC0AE8DAA23F4
:1022B00049F020E040E050E060E87FEB85EB95E0FE
:1022C0000E94710420E040E050E060E87FEBCE0126
:1022D00001960E9471048CE0FE013196AFE5B5E0F5
:1022E00001900D928A95E1F717C06FE575E086E0E1
:1022F00003C06FE575E087E00E94531F0DC08CE0BE
:10230000E5EBF5E0A7E7B5E0EBCF8CE0E7E7F5E03C
:10231000DF011D928A95E9F7809188058093470532
:10232000883009F464C0BE8DB23009F060C08130DD
:1023300011F1D8F0823071F1833009F04FC0C090B4
:102340005605D0905705E0905805F090590500913A
:10235000AC051091AD052091AE053091AF051F92EF
:1023600089A58F9398A59F932BC020E040E050E073
:1023700060E87FEB0AC04091560550915705609187
:102380005805709159052091480585EB95E00E940C
:10239000710424C0C0905605D0905705E0905805B0
:1023A000F09059050091AC051091AD052091AE0556
:1023B0003091AF0581E08F93E9A5EF93F8A5FF93E6
:1023C0008FA0A090480547E955E065EB75E08FE5E3
:1023D00095E00E94BF040F900F900F908CE0E5EB0A
:1023E000F5E0AFE5B5E001900D928A95E1F78091B7
:1023F000920580935105813021F40E947A32109227
:10240000510580918F0580934E05882309F45DC0A6
:102410000E94141590914E0580912805913069F421
:102420008230A1F19FB7F894809144058860809331
:1024300044059FBF0E94671329C091E09093470510
:1024400010924B0510924A051092480510924D05C6
:102450001092500510924F058230A9F0BE01635FC3
:102460007F4F80E00E949F20882389F18CE0FE014D
:102470003D96ABE6B5E001900D928A95E1F70E949A
:1024800084120E94881287E00E94092C10924E0547
:102490001CC081E01FC082E01DC088E11BC089E133
:1024A00019C084E017C08BE115C085E213C084E138
:1024B00011C08EE10FC08FE10DC086E10BC080E23C
:1024C00009C083E207C084E205C080E003C087E062
:1024D00001C082E2AB960FB6F894DEBF0FBECDBF4F
:1024E000DF91CF911F910F91FF90EF90DF90CF90F0
:1024F000BF90AF909F908F907F906F905F904F9024
:102500003F902F900895089508950895089508958F
:10251000089508950895909102018091030189170B
:1025200008F48058891B0895E0ECF0E08081826017
:1025300080831092C50080E18093C400E1ECF0E05C
:1025400080818061808380818860808380818068D1
:1025500080830895E091010191E09E0F903409F489
:1025600090E020910001921305C02091440524FFC2
:10257000F8CF0895F0E0EF53FA4F80839093010174
:102580008091C10080628093C10008951F920F92D4
:102590000FB60F9211248F939F93EF93FF93809127
:1025A0000001E82FF0E0EF53FA4F90819093C600BE
:1025B0008F5F803409F480E08093000190910101E5
:1025C000891305C08091C1008F7D8093C100FF9168
:1025D000EF919F918F910F900FBE0F901F901895C4
:1025E0009091020180910301891761F0E92FF0E0D9
:1025F000EF5FF94F80819F5F903809F490E09093EE
:10260000020108958FEF08951F920F920FB60F9257
:1026100011242F933F934F935F936F937F938F93E7
:102620009F93AF93BF93EF93FF938091C6008F3337
:10263000A9F050F4883109F1813211F59FB7F8946F
:1026400080914405886015C0803471F08E37C1F4E4
:102650009FB7F8948091440582600BC09FB7F894AF
:1026600080914405816005C09FB7F894809144052E
:102670008062809344059FBF14C00E94300811C03F
:10268000E091030191E09E0F903809F490E02091D1
:102690000201921731F0F0E0EF5FF94F80839093E1
:1026A0000301FF91EF91BF91AF919F918F917F9126
:1026B0006F915F914F913F912F910F900FBE0F90AF
:1026C0001F90189580910301809302010895EF9265
:1026D000FF920F931F93CF93DF93D1E008E080E246
:1026E000F82E10E190E4E92EC0914605CC2389F143
:1026F000D0932805C1FF02C081E00FC0C2FF02C015
:1027000082E00BC0C3FF02C083E007C0C4FF02C069
:1027100084E003C0C5FF03C085E00E94DF2BC0FD3D
:1027200008C08FB7F89490914605109246058FBF68
:1027300010C081E00E94092C9FB7F8948091440555
:102740008F7E809344059FBF8091440584FFFCCF1A
:10275000E8CFC0914405CC2309F4BCC0C4FF04C039
:1027600081E080932705CEC0C0FF0AC00E942E2FB3
:102770009FB7F894809144058E7F809344059FBF56
:102780008C2F887609F43CC080912805882349F075
:10279000982F9C7769F1883021F40E942918D093F2
:1027A000290580912805811103C092E090932905A5
:1027B000C6FF09C0883011F4E092280580912905F0
:1027C000886080932905C3FF05C08091280585FF97
:1027D00010932805C5FF0CC086E00E94092C80914B
:1027E000290581FDC460846080932905F092280545
:1027F0009FB7F894809144058779809344059FBFE3
:10280000C1FF48C08C2F8876E9F580912805882380
:1028100031F08075B9F18091290581FF33C0809135
:10282000290582FF1CC080915005882371F04091DA
:1028300052055091530560915405709155050E94C1
:10284000851280EA9FE00E94642780914F058823CB
:1028500031F00E94891288EE93E00E9464270E9462
:102860004523892B59F08091290583FD07C00093EA
:1028700028050E944B180E94251502C010922805B9
:10288000109229059FB7F894809144058D7F80931D
:1028900044059FBFC2FF1EC080912805807371F060
:1028A0008091290582FF04C00E9484120E94881230
:1028B0008091290582608093290504C01092290522
:1028C000109228059FB7F894809144058B7F8093E0
:1028D00044059FBF809128058C7711F00E944B180A
:1028E00080912805803251F48091290581FF06C02E
:1028F0000E947730811102C010932805809129052C
:102900008111F2CEDF91CF911F910F91FF90EF9047
:1029100008959FB7F89480914405826080934405A0
:102920009FBF0895CF93DF930E94382C8091280594
:10293000813021F482E00E94092C2FC00E94773060
:10294000882341F0809144058062809344050E9471
:10295000671302C01092280584E091E00E9479304C
:102960001CC08D3079F0DD2399F1893221F4D1300A
:1029700009F04CC0D0E00E94F0128F3F09F448C02B
:102980008A3079F7EC2FF0E0EC5FFE4F10820E9466
:10299000671380912705882311F0C0E0EBCF809169
:1029A0000401811103C00E94912BF7CF843229F4D6
:1029B00084E091E00E949830F6CF80912805813024
:1029C00011F489E0F0CF84E091E00E947308EBCF2E
:1029D000813288F28F3279F28832B1F08B33B1F0E4
:1029E000CF3428F08BE00E94912BC0E0C4CF2C2F75
:1029F00030E0CF5F9FE9980FF901EC5FFE4F9A310D
:102A000008F480528083B7CFD1E0B5CFD2E0B3CF06
:102A10000E9489140E94671380912705882309F476
:102A2000AACFDF91CF9108950E9489140E94671365
:102A300080912705811108C00E944523892BB1F799
:102A400080912805883091F308958091BE0682FF19
:102A500002C0289A01C02898809128058C70A1F0A6
:102A600080918401809398018091850180939701E2
:102A70008091B106880F8450819580939601809152
:102A80006F00826080936F00089580916F008D7F4A
:102A900080936F0080918100887F816080938100A6
:102AA000109283018091B4068F3F21F490914605E6
:102AB000992349F090912805943029F090E00E94E4
:102AC000642781E001C080E09091BE0692FF02C0C1
:102AD00091E08927882311F0289A0895289808956D
:102AE0001F920F920FB60F9211242F933F934F9383
:102AF0005F936F937F938F939F93AF93BF93CF9386
:102B0000DF93EF93FF93809183018111EFC19BB11C
:102B100080919801807E9F71892B8BB98BB1837EC8
:102B200090919701892B8BB98091960186BD82E0A7
:102B300085BD81E08093830178948091AA01909172
:102B4000AB01892B09F0A4C0809188019091870185
:102B5000981709F492C0E091880186E0E89FF0019F
:102B60001124E455FE4FF093AB01E093AA01838159
:102B700094819093890080938800808191819093C3
:102B8000A6018093A501A2818091A7018A1771F106
:102B9000A093A70181E1A89FD0011124A053BE4FAB
:102BA000B093A901A093A8011D968D919D910D90C0
:102BB000BC91A02DB695A795979587958093910187
:102BC00090939201A0939301B093940180938D010F
:102BD00090938E01A0938F01B0939001809389010F
:102BE00090938A01A0938B01B0938C01C091A801AE
:102BF000D091A901809184019881892780939801BF
:102C0000258189819A81AB81BC81022E04C0B69551
:102C1000A795979587950A94D2F7809399019093F9
:102C20009A01A0939B01B0939C018D819E81AF81FD
:102C3000B885022E04C0B695A795979587950A94F6
:102C4000D2F780939D0190939E01A0939F01B09332
:102C5000A00189859A85AB85BC8504C0B695A795EA
:102C6000979587952A95D2F78093A1019093A20119
:102C7000A093A301B093A4010BC00E9445159FB778
:102C8000F894809144058460809344059FBF2EC1D1
:102C90000E94902B109297018091990190919A0136
:102CA000A0919B01B0919C014091890150918A01B2
:102CB00060918B0170918C01840F951FA61FB71F27
:102CC0008093890190938A01A0938B01B0938C012A
:102CD000E091A801F091A901458556856785708925
:102CE000481759076A077B0768F524E02093970186
:102CF0004585568567857089841B950BA60BB70B98
:102D00008093890190938A01A0938B01B0938C01E9
:102D1000208180912A0590912B05A0912C05B091DE
:102D20002D0525FF04C00197A109B10903C0019633
:102D3000A11DB11D80932A0590932B05A0932C050E
:102D4000B0932D0580919D0190919E01A0919F01CE
:102D5000B091A00140918D0150918E0160918F0141
:102D600070919001840F951FA61FB71F80938D014E
:102D700090938E01A0938F01B09390014585568565
:102D800067857089481759076A077B0778F520918E
:102D9000970128602093970145855685678570893E
:102DA000841B950BA60BB70B80938D0190938E011E
:102DB000A0938F01B0939001208180912E05909176
:102DC0002F05A0913005B091310526FF04C0019771
:102DD000A109B10903C00196A11DB11D80932E0563
:102DE00090932F05A0933005B09331058091A101F8
:102DF0009091A201A091A301B091A40140919101F1
:102E0000509192016091930170919401840F951FEC
:102E1000A61FB71F8093910190939201A0939301F5
:102E2000B093940145855685678570894817590781
:102E30006A077B0778F5209197012061209397011D
:102E40004585568567857089841B950BA60BB70B46
:102E50008093910190939201A0939301B093940178
:102E600020818091320590913305A0913405B09175
:102E7000350527FF04C00197A109B10903C00196D8
:102E8000A11DB11D8093320590933305A0933405A5
:102E9000B093350580912805843039F4809143053D
:102EA000909197018923809397018091A50190913A
:102EB000A60101979093A6018093A501892B69F43F
:102EC0001092AB011092AA01809188018F5F8093CC
:102ED0008801863011F410928801809185019091CB
:102EE000970189278093970110928301FF91EF91B9
:102EF000DF91CF91BF91AF919F918F917F916F9112
:102F00005F914F913F912F910F900FBE0F901F90A7
:102F100018951F920F920FB60F9211248F939F93C3
:102F20009BB1809185018C71937E892B8BB915BCE7
:102F30009F918F910F900FBE0F901F901895FF9249
:102F40000F931F93CF93DF9310928501109284010A
:102F5000C0E0D0E00C2F1C2F2091B20630E08C2F67
:102F60000C2E02C0359527950A94E2F720FF07C082
:102F7000F09085010E94E7218F298093850120919F
:102F8000B30630E002C0359527951A95E2F720FF89
:102F900008C010918401802F0E94F121812B809321
:102FA00084012196C330D105A9F6DF91CF911F91FD
:102FB0000F91FF9008950E9445158BE2E4E5F1E042
:102FC000DF011D928A95E9F783E2E9E8F1E0DF018C
:102FD0001D928A95E9F71092820110928101109258
:102FE00088011092870181E080938601109283010D
:102FF0000E949F178BB1837E90918501892B8BB99D
:103000008BB18F7190918401892B8BB908958AB10E
:103010008C618AB9209A8AB1806E8AB9E1E8F0E0C1
:1030200080818F7E8083808188608083E0E8F0E00B
:1030300080818C7F808380818F708083EEE6F0E0DA
:103040008081887F808314BC15BC808181608083EF
:103050000895CF93DF93C0918101D0918201209791
:10306000B9F081E08093550160916B0170916C0122
:1030700080916D0190916E019B01AC010E94B5356C
:10308000698B7A8B8B8B9C8B1092820110928101C1
:10309000DF91CF9108952F923F924F925F926F925E
:1030A0007F928F929F92AF92BF92CF92DF92EF92D8
:1030B000FF920F931F93CF93DF93CDB7DEB7E597C2
:1030C0000FB6F894DEBF0FBECDBF80912805807784
:1030D00009F40AC220E030E0A90160916B0170910F
:1030E0006C0180916D0190916E010E947733811186
:1030F000FBC103C68091810190918201892B09F463
:10310000FAC180918701F6E0F89FF0011124E4559F
:10311000FE4FFE83ED8380915401828320918101D3
:10312000309182013E872D87D9019596BC91BCA72D
:10313000F901F6A1FDA7D9019796BC91BEA7F901A7
:10314000F0A5FFA720915E0130915F0140916001E1
:10315000509161016CA57DA58B2F9F2F0E949D3200
:1031600068A779A78AA79BA720E030E0A9010E9461
:10317000773387FF04C018A619A61AA61BA62091AC
:103180007701288F30917801398F409179014A8FEA
:1031900050917A015B8F80916F018C8F90917001BB
:1031A0009D8FA0917101AE8FB0917201BF8FE091A0
:1031B0007B01E8A3F0917C01F9A320917D012AA372
:1031C00030917E013BA3409167014CA3509168016F
:1031D0005DA3809169018EA390916A019FA32091C4
:1031E000730130917401409175015091760128ABC3
:1031F00039AB4AAB5BAB30916B01398340916C01C9
:10320000498720906D0130906E01509166015F8773
:103210008CA58C8B9DA59D8BAEA5AE8BBFA5BF8BC2
:103220003EE3C32E33ECD32E3EE2E32E39E3F32EFE
:10323000188A198A1A8A1B8A26013701EF85E1113B
:10324000B4C3AD85BE8591962D913D914D915C9114
:103250009497C701B6010E94B5354B015C0120E08F
:1032600030E040E05FE30E94B5359B01AC0169812D
:103270007985C1010E949E329B01AC01C701B60154
:103280000E94B5359B01AC016C897D898E899F892F
:103290000E949D328B018DAB9CAB288D398D4A8D60
:1032A0005B8D0E94773387FF86C3288D398D4A8DC9
:1032B0005B8D6CA57DA58EA59FA50E949D329B016F
:1032C000AC010E949E326B017C012C8D3D8D4E8D98
:1032D0005F8D69817985C1010E949E329B01AC019D
:1032E000C701B6010E947E336B017C0128A139A180
:1032F0004AA15BA1688D798D8A8D9B8D0E94773361
:10330000882309F455C3B1E0BF87FC8DF9832D8D67
:1033100029872E8C3F8C088D198D3A8D3DAB4B8DB6
:103320004CABA7019601688979898A899B890E949B
:103330009E32688B798B8A8B9B8BA30192010E94B2
:10334000773387FDF2C328A539A54AA55BA5B80147
:103350008DA99CA90E947A3518160CF4DCC38981CA
:103360009985D10180936B0190936C01A0936D01BD
:10337000B0936E01FF85F093660140905A01509022
:103380005B0160905C0170905D0198014DA95CA9A2
:10339000C301B2010E94B53569837A838B839C8314
:1033A0000E9464336B017C0160915601709157015A
:1033B00080915801909159010E9464334B015C0146
:1033C000A70196010E949D320E94EB3369877A879C
:1033D0008B879C87E985FA85AD81BE81ED93FC934F
:1033E000309709F4CDC3209162013091630140917F
:1033F000640150916501688979898A899B890E9455
:103400009E322B013C0129813A814B815C81C501AF
:10341000B4010E949D329B01AC01C301B2010E9424
:103420007E334B015C0129813A814B815C81C7016C
:10343000B6010E949D32A50194010E94B5356093AA
:10344000620170936301809364019093650120ECA5
:1034500031EE44E65EE4C501B4010E94B5350E9438
:1034600064330E94EB33603DB7E07B078105910533
:1034700008F0ACC3ED81FE811582AD81BE8114964A
:103480007C936E93139780918601809387018F5F61
:10349000863009F4D4C3809386012091670130916E
:1034A00068014091690150916A01B8018DA99CA9F8
:1034B0000E947A3518160CF0C5C3E0918101F09195
:1034C0008201C801ADA9BCA985A396A3A7A3B0A7F3
:1034D00089819A81AB81BC81809356019093570179
:1034E000A0935801B0935901909188018091860171
:1034F000981300CE02C40E9445231C0190938201C0
:1035000080938101009709F4F8C3809155011091CF
:103510002805882319F010925501BEC080915401EE
:103520008F5F853019F08093540102C010925401CE
:10353000E091540121E12E9FF0011124E053FE4F50
:10354000F0938001E0937F01D1018C9180831196EB
:103550004D915D916D917C91149703E0440F551F3F
:10356000661F771F0A95D1F7418352836383748363
:1035700015964D915D916D917C91189783E0440F64
:10358000551F661F771F8A95D1F74583568367833A
:10359000708719964D915D916D917C911C9793E088
:1035A000440F551F661F771F9A95D1F741875287A1
:1035B000638774871D966D917D918D919C91509735
:1035C0006B017C0123E0CC0CDD1CEE1CFF1C2A955A
:1035D000D1F7C586D686E786F08A0E9417346093B5
:1035E0005601709357018093580190935901F1014E
:1035F00025A136A147A150A50E947E339B01AC01B5
:1036000060935A0170935B0180935C0190935D011C
:1036100060E070E080EA9FE30E947E3360935E0189
:1036200070935F0180936001909361011092620139
:10363000109263011092640110926501812F8077CE
:10364000E1F0609173017091740180917501909126
:10365000760160936B0170936C0180936D01909380
:103660006E019B01AC010E94B535D10151966D935D
:103670007D938D939C9354970FC0F101618972895A
:10368000838994890E94423660936B0170936C0128
:1036900080936D0190936E01109267011092680102
:1036A0001092690110926A01D10191968D909D90BE
:1036B000AD90BC909497A501940160E070E080E02B
:1036C0009FE30E947E332B013C011077F101C5A0DE
:1036D000D6A0E7A0F0A4112309F44DC0F2E0F093C6
:1036E0006601D10151962D913D914D915C91549778
:1036F0002D833E834F8358870E94B5359B01AC01D3
:10370000C701B6010E949D322B013C0120E030E050
:10371000A9010E94773387FF1DC0A5019401C5014F
:10372000B4010E949E32A70196010E94B5359B010B
:10373000AC016D817E818F8198850E949D320E94AF
:103740004236609373017093740180937501909376
:103750007601D7CC4092670150926801609269016E
:1037600070926A01109273011092740110927501A7
:1037700010927601C6CC10926601C0927701D09269
:103780007801E0927901F0927A010E9455234B0171
:103790005C01609373017093740180937501909341
:1037A00076019B01AC010E94B53569837A838B83D6
:1037B0009C830091810110918201D80195962D91F1
:1037C0003D914D915C91989729873A874B875C870B
:1037D00051962D913D914D915C9154972D833E834F
:1037E0004F8358879B01AC016D817E818F819885C5
:1037F0000E949D329B01AC01C301B2010E94B5350C
:103800009B01AC0169857A858B859C850E949E32DF
:1038100020E030E040E05FE30E94B5356B017C01C1
:1038200020E030E0A9010E947A3518160CF0ACC0F7
:1038300029853A854B855C85C701B6010E9477339F
:1038400087FF8EC0F801858C968CA78CB0A029814B
:103850003A814B815C81C501B4010E949D329B017C
:10386000AC01C301B2010E94B53560937B01709336
:103870007C0180937D0190937E01A70196010E94B7
:10388000773387FF3DC0C501B4010E944236609383
:103890006F01709370018093710190937201A50183
:1038A00094016D817E818F8198850E94773381118B
:1038B00004C0F1E0F093660124CC2D813E814F815C
:1038C0005885C501B4010E949D329B01AC01C30122
:1038D000B2010E94B5359B01AC01609177017091F6
:1038E00078018091790190917A010E949D326093D4
:1038F0007701709378018093790190937A0101CCDC
:10390000C0927701D0927801E0927901F0927A0129
:10391000C0927B01D0927C01E0927D01F0927E0109
:10392000D80191966D917D918D919C9194979B0179
:10393000AC010E949E32A70196010E94B5352981F3
:103940003A814B815C810E949E320E944236609394
:103950006F01709370018093710190937201D1CBCC
:10396000B2E0B093660180916B0190916C01A091DF
:103970006D01B0916E0180936F0190937001A093DF
:103980007101B0937201BDCB109277011092780152
:103990001092790110927A0180926F0190927001D9
:1039A000A0927101B0927201ACCBE13061F041C0E4
:1039B000E2E0EF87AACCA501940169817985C10174
:1039C0000E949E327CC0A70196016C8D7D8D8E8DEC
:1039D0009F8D0E94B5359B01AC016C897D898E89D4
:1039E0009F890E949D328B018DAB9CAB28A139A190
:1039F0004AA15BA10E94773387FF93CC28A139A10C
:103A00004AA15BA16C897D898E899F890E949D3224
:103A10002C8D3D8D4E8D5F8D0E947E336B017C0120
:103A200008A119A15AA15DAB8BA18CAB92E09F8735
:103A300078CCAD85BE8591962D913D914D915C914F
:103A40009497C701B6010E94B5354B015C019B01FB
:103A5000AC0169817985C1010E947A3518169CF5FF
:103A600020E030E040E05FE3C501B4010E94B535DD
:103A70009B01AC0169817985C1010E949D329B0146
:103A8000AC01C701B6010E94B5359B01AC016C8940
:103A90007D898E899F890E949D328B018DAB9CAB65
:103AA0002CA13DA14EA15FA10E947A3518165CF4AD
:103AB000A501940169817985C1010E949D326983C4
:103AC00079871C012ECC2CA13DA14EA15FA16C8950
:103AD0007D898E899F890E949D329B01AC010E9445
:103AE0009E326B017C0128A939A94AA95BA9698189
:103AF0007985C1010E949E329B01AC01C701B601CC
:103B00000E947E336B017C010CA11DA1BEA1BDAB47
:103B1000EFA1ECAB06CC2EE333EC4EE259E3C3014C
:103B2000B2010E949E322B013C01288939894A89C1
:103B30005B89C301B2010E949D326B017C012CA103
:103B40003DA14EA15FA1B8018DA99CA90E947A3523
:103B500018167CF089819985D10180936B0190932F
:103B60006C01A0936D01B0936E013F8530936601A7
:103B700004CC0C8B1D8B4DA94E8B5CA95F8B5ECB4F
:103B800080912805807709F42ECC10926B01109259
:103B90006C0110926D0110926E01109262011092F0
:103BA00063011092640110926501C0925601D09297
:103BB0005701E0925801F0925901A3019201C70107
:103BC000B6010E947E33AD85BE8570C0603AFFE0CD
:103BD0007F078105910510F4E1E009C06034FFE141
:103BE0007F078105910510F4E2E001C0E3E0AD81BB
:103BF000BE811596EC93AD81BE8115962C911597DB
:103C0000022E04C096958795779567950A94D2F70A
:103C1000E985FA8502C0EE0FFF1F2A95E2F7ED93C2
:103C2000FC9361157105F1E08F07910508F425CC2F
:103C30002FEF3FEFED81FE813483238324CC10925C
:103C400086012BCC20E030E0A901B8018DA99CA908
:103C50000E947A3518160CF049C010926B01109230
:103C60006C0110926D0110926E011092620110921F
:103C700063011092640110926501C0925601D092C6
:103C80005701E0925801F092590100918101109181
:103C9000820120915A0130915B0140915C01509169
:103CA0005D01C701B6010E947E33D80195966D93E0
:103CB0007D938D939C939897E5960FB6F894DEBF0D
:103CC0000FBECDBFDF91CF911F910F91FF90EF906D
:103CD000DF90CF90BF90AF909F908F907F906F902C
:103CE0005F904F903F902F900C94AA2610928201E3
:103CF000109281010E943123F7CBE5960FB6F8941C
:103D0000DEBF0FBECDBFDF91CF911F910F91FF900E
:103D1000EF90DF90CF90BF90AF909F908F907F906B
:103D20006F905F904F903F902F900895F999FECF3C
:103D300092BD81BD81E08FBB80B50895F894F9995B
:103D4000FECF92BD81BD81E08FBB40B54627842F59
:103D5000992787FD9095262F30E082239323892B86
:103D600039F06F3F19F060BD84E006C084E104C003
:103D7000442321F060BD84E28FBBF99A78940895C2
:103D80009F92AF92BF92CF92DF92EF92FF920F93EA
:103D90001F93CF93DF938C017A016B01C40ED51E64
:103DA000EB01912C5C01A61AB70ACE018A0D9B1D6E
:103DB000CC15DD0591F0911009C0692D772767FDBD
:103DC0007095272F221F2227221F01C021E0699111
:103DD000922E960E0E949E1EE8CF692DC8018E0D70
:103DE0009F1DDF91CF911F910F91FF90EF90DF907A
:103DF000CF90BF90AF909F900C949E1E9F92AF92D9
:103E0000BF92CF92DF92EF92FF920F931F93CF93C7
:103E1000DF938B017A016C01C40ED51EEC01912C4D
:103E20005B01A81AB90AC5018C0F9D1FCC15DD05D1
:103E300091F00E94961E911009C0292D332727FD6D
:103E40003095232F221F2227221F01C021E0922E0E
:103E5000980E8993E8CFC8018E0D9F1D0E94961E73
:103E600021E030E0981611F020E030E0C901DF9148
:103E7000CF911F910F91FF90EF90DF90CF90BF9067
:103E8000AF909F90089521E5829FC001112440E5E5
:103E900050E09D5F0C94C01E40E550E0BC018EEAEE
:103EA00093E00C94C01E2DE0829FC00111244CE0D1
:103EB00050E09E5F0C94C01E69E080E090E00E949C
:103EC0009E1E4DE450E061E876E081E090E00C94C5
:103ED000C01EEF92FF920F931F93CF93DF93CDB746
:103EE000DEB72C970FB6F894DEBF0FBECDBF182FEC
:103EF00080FFC1C08AE08093B10689E18093B40657
:103F00001092B2061092B30683E08093B5068AE061
:103F100097EDA3E2BCE38093B6069093B706A09317
:103F2000B806B093B9068FE692E1A3E0BBE38093B5
:103F3000BA069093BB06A093BC06B093BD06109240
:103F4000BF0680E090E0A8ECB1E48093C0069093B7
:103F5000C106A093C206B093C30640E050E06AEFEA
:103F600073E44093C4065093C5066093C6067093ED
:103F7000C7068AEF90E09093C9068093C80680E058
:103F800090E0A0E8BFE38093CA069093CB06A0938D
:103F9000CC06B093CD061092BE0680E090E0AAE772
:103FA000B3E48093810690938206A0938306B09336
:103FB00084068093850690938606A0938706B09327
:103FC00088068093890690938A06A0938B06B09307
:103FD0008C0640938D0650938E0660938F067093E7
:103FE00090064093910650939206609393067093C7
:103FF00094064093950650939606609397067093A7
:10400000980640E050EA6CE077E4409399065093BC
:104010009A0660939B0670939C0640939D0650936E
:104020009E0660939F067093A0064093A10650934E
:10403000A2066093A3067093A40640E050E068E4F3
:1040400073EC4093A5065093A6066093A706709361
:10405000A8064093A9065093AA066093AB067093F6
:10406000AC064093AD065093AE066093AF067093D6
:10407000B0060E945C1F11FF10C0CE0101967C01AA
:104080008CE0F70111928A95E9F700E0B701802FE3
:104090000E94531F0F5F0830C9F712FF0AC060E08B
:1040A00080E093E00E949E1E60E081E593E00E9424
:1040B0009E1E13FF05C060E08EEA93E00E949E1EE4
:1040C0002C960FB6F894DEBF0FBECDBFDF91CF9117
:1040D0001F910F91FF90EF9008951F93CF93DF935F
:1040E000182FEB0181E5189FB00111247D5F40E599
:1040F00050E0CE010E94FE1E892B39F41882BE01C9
:10410000812F0E94431F80E001C081E0DF91CF91A9
:104110001F910895CF93DF93EC0140E550E06EEAE4
:1041200073E00E94FE1E892B31F41882CE010E949A
:104130004C1F80E001C081E0DF91CF9108951F9373
:10414000CF93DF93182FEB018DE0189FB00111245E
:104150007E5F4CE050E0CE010E94FE1E892B59F498
:104160008CE0FE0111928A95E9F7BE01812F0E9431
:10417000531F80E001C081E0DF91CF911F9108952E
:1041800080E090E00E94961E893059F44DE450E0A2
:1041900061E070E081E896E00E94FE1E21E0892B3C
:1041A00009F420E0822F0895CF92DF92EF92FF92E0
:1041B000CF93DF93C82F6A017B0120E030E0A90193
:1041C000C701B6010E94773387FDE6C0C43608F404
:1041D00045C02CE92C0F80E02330B8F530E0823068
:1041E00079F0F901EE0FFF1FEE0FFF1F833011F181
:1041F000813019F0EF57F94F23C0E357F94F20C032
:10420000E901CC0FDD1FCC0FDD1FC756D94F20E0D1
:1042100030E040E752E4C701B6010E94B53520E026
:1042200030E040E752E40E94B535688379838A83A1
:104230009B83AEC0EB55F94FF7FAF094F7F8F09482
:10424000C082D182E282F382A3C08F5F2A3008F459
:10425000A5C0843009F4A2C02A50BECFC701B60160
:104260000E9483360E94EB338C2F90E08C319105B5
:1042700008F094C0FC01EF5AFF4F0C94D036633025
:1042800008F48EC06093B10683C06093B40680C00A
:104290006093B20602C06093B3060E949F1778C075
:1042A0008091BE06662311F0846007C08B7F05C035
:1042B0008091BE06662321F080648093BE0668C0AC
:1042C0008F7BFBCF8091BE06662311F08068F5CF0F
:1042D0008F77F3CF6093B5065BC0C092B606D092DD
:1042E000B706E092B806F092B90652C0C092BA067C
:1042F000D092BB06E092BC06F092BD0649C0809108
:10430000BE06662311F08160D8CF8E7FD6CF809114
:10431000BE06662321F084FF45C08062CECF8F7D2C
:10432000CCCF8091BE06662311F0886001C0877FE4
:104330008093BE060E94A0272BC08091BE066623F4
:1043400011F08061BACF8F7CB8CF6093BF0620C0D8
:10435000C092C006D092C106E092C206F092C30697
:1043600017C0C092C406D092C506E092C606F0926D
:10437000C7060EC070E07093C9066093C80608C0F7
:10438000C092CA06D092CB06E092CC06F092CD063F
:104390000E945C1F80E007C084E005C083E003C08A
:1043A00086E001C08AE0DF91CF91FF90EF90DF902F
:1043B000CF9008950E94C020811108C087E00E941C
:1043C000912B8FEF0E94691F0C94402C0895882335
:1043D00021F0813021F488E0089584E0089580E19F
:1043E0000895882321F0813021F480E4089580E24B
:1043F000089580E80895882321F0813021F484E035
:10440000089582E0089588E008954F925F926F9238
:104410007F928F929F92AF92BF92CF92DF92EF9254
:10442000FF920F931F93CF93DF93109143021111CB
:1044300001C012E1115000914102101709F4EFC0C0
:1044400089E2189FE0011124CB5BDD4F8D889E88A7
:10445000AF88B88C69A17AA18BA19CA19B01AC010A
:104460000E949E322DA13EA14FA158A50E94B535B4
:104470006B017C019B01AC01B401C5010E94773343
:1044800087FF02C064017501A601B701498B5A8BF1
:104490006B8B7C8B111101C012E177247A94710E21
:1044A000701619F029E2622E27C080914402081389
:1044B00051C00E9429184EC0679C800111240B5BDB
:1044C0001D4F711002C092E1792E7A9480914402BE
:1044D000781202C00E942918F801C588D688E7889A
:1044E000F08CA701960161897289838994890E9461
:1044F0007733811106C0E801809141027812DCCF48
:1045000029C0F80161A172A183A194A19B01AC0112
:104510000E949E32F80125A136A147A150A50E9414
:10452000B53529893A894B895C890E949E324B01B5
:104530005C01A70196010E947733F80187FF05C04F
:10454000818A928AA38AB48AD6CFC18AD28AE38A20
:10455000F48AD1CF60904102F9E26F9E800111246C
:104560000B5B1D4F77247394760C82E1781201C0A7
:10457000712C5090430289E2482E751409F44DC005
:10458000479CE0011124CB5BDD4FF80181889288C4
:10459000A388B488C988DA88EB88FC88A7019601CB
:1045A000C501B4010E94773387FF23C0F80161A1E0
:1045B00072A183A194A19B01AC010E949E32F801DB
:1045C00025A136A147A150A50E94B5359B01AC019C
:1045D000C501B4010E949E324B015C01A701960106
:1045E0000E94773387FF05C0898A9A8AAB8ABC8A82
:1045F000672C2D893E894F89588D69897A898B89E5
:104600009C890E947733811101C0672C7394F2E179
:104610007F1201C0712C8E01B0CF60924102DF91F8
:10462000CF911F910F91FF90EF90DF90CF90BF90AF
:10463000AF909F908F907F906F905F904F90089574
:104640008CE1E5E2F2E0DF011D928A95E9F7109234
:1046500044021092430281E0809342021092410290
:1046600008959091440280914302891769F081E096
:10467000890F823109F480E020914102921302C037
:104680008093410280934402089580914402909166
:104690004302981739F029E2829FC00111248B5BF5
:1046A0009D4F089580E090E00895E0914402EF5F0F
:1046B000E23109F4E0E080914302E81761F089E219
:1046C000E89FF0011124EB5BFD4F618972898389BA
:1046D00094890C94423660E070E0CB01089581E04B
:1046E0002091440290914202291380E008952F9274
:1046F0003F924F925F926F927F928F929F92AF9272
:10470000BF92CF92DF92EF92FF920F931F93CF93BE
:10471000DF93CDB7DEB7AD970FB6F894DEBF0FBE0F
:10472000CDBF142F052F6B8F7C8F822E20914302DB
:1047300039E2239F10011124F101EB5BFD4F1F01B2
:10474000158616861786108A15A216A217A210A61D
:10475000108249E956E766E97EE741A352A363A3C5
:1047600074A35C0141E8E42E46E0F42E9E01235F31
:104770003F4F38A32F8F85E292E09E8F8D8F6F0180
:10478000FE013196FAA3E9A3912CF5016191719193
:10479000819191915F01F7012081318142815381A3
:1047A0000E94B5350E948535EF8DF8A16193719314
:1047B00081939193F8A3EF8FED8DFE8D41905190F1
:1047C00061907190FE8FED8F6419750986099709C4
:1047D0002B013C0197FF07C0442455243201461A9F
:1047E000570A680A790AF60141825282638274820A
:1047F000F1012585368547855089421653066406A2
:10480000750610F429013A01F1014586568667863E
:10481000708A0E941934F7012081318142815381CD
:104820000E947E332B013C01E9A1FAA161937193AF
:1048300081939193FAA3E9A320E030E0A9010E94BB
:10484000773387FF0AC0F1019081892D9DA70E94CF
:10485000F1219DA5892BF1018083A3019201C30160
:10486000B2010E94B535F10125A136A147A150A59D
:104870000E949E32F10165A376A387A390A793942B
:10488000F4E0EF0EF11C24E0C20ED11C33E09312D1
:104890007CCF0E9442366B017C01F10165A376A3B7
:1048A00087A390A785859685A785B089892B8A2BB4
:1048B0008B2B09F4FCC120E030E0A901612F702F9F
:1048C0008B8D9C8D0E94773387FD21C0882061F0FD
:1048D000A7019601612F702F8B8D9C8D0E94B5359D
:1048E000162F072F8B8F9C8F20E030E040E85FE38E
:1048F000612F702F8B8D9C8D0E94773387FF0DC0A9
:1049000010E000E030E83B8F8FE38C8F06C019E9A0
:1049100006E7F6E9FB8F2EE72C8FA701960160E0F2
:1049200070E080E89FE30E947E3369A77AA78BA797
:104930009CA7E1E3F2E0FAA3E9A32DE836E038A36F
:104940002F8FCE010D969A8F898FFE013196FE8FA3
:10495000ED8FC12CD12C7601ED8DFE8D8080918064
:10496000A280B38020E030E0A901C501B4010E941B
:104970007733882309F47FC029A53AA54BA55CA508
:10498000C501B4010E94B5354B015C01ED8DFE8D72
:1049900060837183828393839B01AC0160E070E04C
:1049A00080E89FE30E947E332B013C01E89477F876
:1049B000EF8DF8A12081318142815381C301B20181
:1049C0000E94B5356BA37CA38DA39EA39B01AC0174
:1049D000612F702F8B8D9C8D0E94773387FF06C0CF
:1049E0001BA30CA3FB8DFDA32C8D2EA3F101F1A124
:1049F000FB8FF101F2A1FC8FF101F3A1FFA3F10103
:104A0000F4A1F8A7EF8DF8A1248535854685578553
:104A1000C301B2010E94B5353B018C019B01AC0181
:104A20006B8D7C8D8FA198A50E94773387FF04C082
:104A30006B8C7C8C0FA118A5C301D801F10181A357
:104A400092A3A3A3B4A3E9A1FAA120813181428159
:104A50005381C501B4010E94B5359B01AC01C7016A
:104A6000B6010E949D326B017C011BA10CA1FDA12E
:104A7000FB8F2EA12C8F8D8D9E8D04969E8F8D8FFA
:104A8000E9A1FAA13496FAA3E9A32F8D38A12C5FEE
:104A90003F4F38A32F8FE98DFA8D8E179F0709F0AE
:104AA0005BCF9091430280914402981306C0F101BC
:104AB000118A128A138A148A0BC024EA30E74DE760
:104AC0005FE3C701B6010E947A35181634F4F1018C
:104AD000118E128E138E148E5BC024EA30E74DE7E0
:104AE0005FEBC701B6010E947A35181644F034EA2C
:104AF000C32E30E7D32E3DE7E32E3FEBF32EA70185
:104B0000960160E070E080E89FE30E949D3220E023
:104B100030E040E05FE30E94B5350E9442366B0111
:104B20007C012091B6063091B7064091B8065091AD
:104B3000B906F10161A172A183A194A10E94B535CA
:104B4000A70196010E94B5354B015C01A7019601B2
:104B500060E070E080E89FE30E949D329B01AC0121
:104B6000C501B4010E947E336B017C0120E030E07E
:104B7000A9010E94773387FF04C0C12CD12CE12CFE
:104B8000F12CA601B701F101418F528F638F748F11
:104B9000212F302F4B8D5C8D612F702F8B8D9C8D35
:104BA0000E94B535162F072FF82EE92E862F902F4D
:104BB000AF2DBE2DF101858F968FA78FB0A3A18C4D
:104BC000B28CC38CD48C60903D0270903E02809079
:104BD0003F02909040029301A401612F702F8F2D0E
:104BE0009E2D0E94773387FD0BC09301A401B50170
:104BF000C6010E94773387FD11C0530164010EC0C6
:104C0000212F302F4F2D5E2DB501C6010E94773325
:104C100087FD04C0A12EB02ECF2CDE2CC501D601FD
:104C2000F101858B968BA78BB08F8CE0FE013196BE
:104C3000A1E3B2E001900D928A95E1F7812F902FC8
:104C4000AF2DBE2D80933D0290933E02A0933F0274
:104C5000B09340028CE0FE013D96A5E2B2E00190E7
:104C60000D928A95E1F780914202809343028F5F13
:104C7000823109F480E080934202AD960FB6F89439
:104C8000DEBF0FBECDBFDF91CF911F910F91FF907F
:104C9000EF90DF90CF90BF90AF909F908F907F90DC
:104CA0006F905F904F903F902F900C940522AD969F
:104CB0000FB6F894DEBF0FBECDBFDF91CF911F912D
:104CC0000F91FF90EF90DF90CF90BF90AF909F90AB
:104CD0008F907F906F905F904F903F902F900895AE
:104CE00080912A0590912B05A0912C05B0912D055E
:104CF0008093250290932602A0932702B093280266
:104D000080912E0590912F05A0913005B09131052D
:104D10008093290290932A02A0932B02B0932C0235
:104D20008091320590913305A0913405B0913505FD
:104D300080932D0290932E02A0932F02B093300205
:104D400008958091430290914402891708F48E5E81
:104D5000891B08950E942918809144028093410282
:104D60000C9405226F927F928F929F92AF92BF9286
:104D7000CF92DF92EF92FF920F931F93CF93DF9327
:104D80007C018B016A01FB018081F701E80FF11DB5
:104D90002081EF012D3229F422962181662463942B
:104DA00007C02B3211F0219602C022962181612C7E
:104DB000A12CB12C712C60E070E0CB01FE0130ED34
:104DC000932E920E29E02915C8F0B39428E02B15F4
:104DD00088F0A1107A94A5E0B0E09B01AC010E949C
:104DE000D636660F771F881F991F690D711D811DAB
:104DF000911D0BC0A11009C0739407C02EEF921231
:104E000007C0A11005C0AA24A39421962081D6CF63
:104E1000BB2009F449C00E9417344B015C0120E01B
:104E200030E0A9010E947733882361F18FEF781673
:104E30006CF42AE037ED43E25CE3C501B4010E9463
:104E4000B5354B015C0173947394F0CF78120BC0AD
:104E50002DEC3CEC4CEC5DE3C501B4010E94B53592
:104E60004B015C010FC0772069F020E030E040E2A8
:104E700051E4C501B4010E94B5354B015C017A943F
:104E800017149CF3662021F0B7FAB094B7F8B094E9
:104E9000F60180829182A282B382CE19DF09C150CD
:104EA000F801C08381E001C080E0DF91CF911F91C4
:104EB0000F91FF90EF90DF90CF90BF90AF909F90B9
:104EC0008F907F906F900895009741F0EFE9FFE099
:104ED0003197F1F700C000000197F6CF08958F9247
:104EE0009F92AF92BF92CF92DF92EF92FF926901B1
:104EF0007A019B01AC010E94B5354B015C01A70111
:104F00009601C701B6010E94B5359B01AC01C501F0
:104F1000B4010E949E32FF90EF90DF90CF90BF903F
:104F2000AF909F908F900C944236EBE6F0E080813A
:104F3000817F8083E8E6F0E080818E7F8083089522
:104F400084B1817F84B985B18E6085B98091BE06B8
:104F500083FF0BC080916B008E6080936B0080910B
:104F6000680081608093680008950C949527CF9223
:104F7000DF92FF920F931F93CF93DF931F92CDB7D2
:104F8000DEB793B19E708091BE0686FD02C08EE0B2
:104F900098279923D9F0C12CD12CF12C01E010E0F5
:104FA0008C2D99830E94FB219981892339F09801E6
:104FB0000C2C01C0220F0A94EAF7F22A8FEFC81ACC
:104FC000D80AE3E0CE16D10459F701C0F12C8F2D99
:104FD0000F90DF91CF911F910F91FF90DF90CF90B5
:104FE00008951F920F920FB60F9211242F933F93A3
:104FF0004F935F936F937F938F939F93AF93BF93E1
:10500000EF93FF9380912805813071F080914605E0
:1050100081110AC00E9430089FB7F894809146051C
:105020008360809346059FBFFF91EF91BF91AF9141
:105030009F918F917F916F915F914F913F912F91B0
:105040000F900FBE0F901F9018952F923F924F9286
:105050005F926F927F928F929F92AF92BF92CF9208
:10506000DF92EF92FF920F931F93CF93DF93CDB711
:10507000DEB767970FB6F894DEBF0FBECDBF582ED0
:10508000809127058111A1C125EAA22E26E0B22E2A
:105090009E01235F3F4F190100E010E0C12CD12C8D
:1050A0007601652C712C802F0E94E721D1018D9310
:1050B0001D01C301002E02C0959587950A94E2F761
:1050C00080FF1AC020E030E040EC5FEBF50160812A
:1050D0007181828193810E94B535688B472E4C0186
:1050E000262F372FAC01C701B6010E947A3518165A
:1050F0001CF0C888D42C74010F5F1F4FF4E0AF0E72
:10510000B11C0330110579F68090C4069090C50655
:10511000A090C606B090C70624E0288B01E06AE2A2
:1051200075E0CE0101960E942A322090BF06312CF4
:10513000FE0131968AE295E09F8B8E8B80E090E0B5
:10514000412C10E0B701A60170589301082E02C04F
:10515000359527950A94E2F720FF28C04394AE893D
:10516000BF891D921D921D921C9213979101082ECA
:1051700002C0359527950A94E2F720FF03C000236B
:1051800019F007C0002329F0C082D182E282F382A5
:1051900004C040835183628373832DE030E02C0F81
:1051A0003D1F280F391FD9012C91122B01963496DF
:1051B0002E893F892C5F3F4F3F8B2E8B833091058B
:1051C00021F6642D70E080E090E00E9417340E9488
:1051D00042369B01AC01C501B4010E94B535AB015B
:1051E000BC01109343054A8B5B8B6C8B7D8B0E94BB
:1051F000702620E04A895B896C897D89CE01019601
:105200000E9477230E944B180E9425150023E9F085
:105210000E94B727FE013D9620E030E090E06191CA
:10522000462F412359F0AC01022E02C055954795F7
:105230000A94E2F740FF02C0609516232F5F3F4FAC
:105240002330310561F7109343050E944B1880917C
:1052500044058473C1F080914405807329F00E9455
:1052600030080E946713B1C00111AAC00E94B7277D
:105270008521A9F79FB7F894809144058B7F80938F
:1052800044059FBF04C0812F8C7109F0BFCF0E94DD
:10529000DB170E9420238091C8069091C9060E94C6
:1052A000642731E00327C9F020E030E040EA50E411
:1052B0006091CA067091CB068091CC069091CD0684
:1052C0000E94B5356B017C018090C0069090C106AC
:1052D000A090C206B090C30610C0C090CA06D0907D
:1052E000CB06E090CC06F090CD068090C40690905E
:1052F000C506A090C606B090C70688898150888BE5
:1053000081110DCF8091BF06A82FB0E0B98BA88B7B
:10531000C090CA06D090CB06E090CC06F090CD06A7
:105320001601270157FA509457F8509481E8A82E97
:1053300086E0B82E9AE2892E95E0992E00E010E0E2
:10534000C301002E02C0959587950A94E2F780FF6D
:1053500029C088899989002E02C0959587950A945D
:10536000E2F7F50180FF0EC024A135A146A157A1A7
:10537000C701B6010E949E32D5012D913D914D91FC
:105380005C9106C02081318142815381C201B1010B
:105390000E94B5350E948535D4016D937D938D9320
:1053A0009C9313970F5F1F4FB4E08B0E911CE4E0AA
:1053B000AE0EB11C0330110519F60E94702605C00F
:1053C0008091440582FF56CF4ACF67960FB6F89476
:1053D000DEBF0FBECDBFDF91CF911F910F91FF9028
:1053E000EF90DF90CF90BF90AF909F908F907F9085
:1053F0006F905F904F903F902F900895CF92DF92E3
:10540000EF92FF920F931F93CF93DF938C01C5EA26
:10541000D6E0F801C190D190E190F1908F0120E0A9
:1054200030E0A901C701B6010E947A35181654F080
:105430002991399149915991C701B6010E94773359
:1054400087FF2BC0809128058830A1F00E9430088A
:105450009FB7F894809146058560809346059FBF6D
:10546000DF91CF911F910F91FF90EF90DF90CF9040
:105470000C9467139FB7F8948091440588608093DB
:1054800044059FBF0E9467138091270581110AC0C0
:10549000809128058111F6CFD9CFF6E0C13BDF0717
:1054A00009F0B7CFDF91CF911F910F91FF90EF904F
:1054B000DF90CF900895CF93DF93EC0189918823FB
:1054C00019F00E94AA12FACFDF91CF910895CF93DD
:1054D000DF93FC018491EF012196882321F00E9443
:1054E000AA12FE01F7CFDF91CF910895EF92FF92BC
:1054F0000F931F93CF93DF931F92CDB7DEB7262F65
:10550000EDB6FEB66DB77EB7641B71090FB6F894A1
:105510007EBF0FBE6DBF0DB71EB70F5F1F4F302F81
:10552000F8019E2F931B941728F4622F0E94A23635
:105530009193F7CF442361F0F801E40FF11D319707
:105540008081805D49830E94AA1249814150F2CF37
:105550000FB6F894FEBE0FBEEDBE0F90DF91CF9157
:105560001F910F91FF90EF90089548E062E00C9436
:10557000762A8A3020F0843620F442E003C041E0ED
:1055800001C043E06AE00C94762A8F929F92AF921A
:10559000BF92CF92DF92EF92FF920F931F93CF9320
:1055A000DF93CDB7DEB72A970FB6F894DEBF0FBEF4
:1055B000CDBF6B017C01142F20E030E0A9010E94D7
:1055C000773387FF07C08DE20E94AA12F7FAF094A2
:1055D000F7F8F094012F023060F020E030E048EC62
:1055E00052E4C701B6010E94B5356B017C0102503F
:1055F000F2CF10FF0AC020E030E040E251E4C701E2
:10560000B6010E94B5356B017C0120E030E040E03E
:105610005FE3C701B6010E949E320E94E633E1E0DB
:10562000F0E0EC0FFD1FE10FF11D2EE22083D12CE5
:105630005AE0852E912CA12CB12C611571058105A4
:105640009105A9F0D11201C0D394EE24E394F12C7A
:10565000EC0EFD1EED0CF11CA50194010E94AE366E
:10566000605DF7016083B901CA01D394E6CF80E39E
:10567000D11648F4E1E0F0E0EC0FFD1FED0DF11D57
:105680008083D394F5CF8D2DD1120BC0D394D394B6
:105690008F5FE1E0F0E0EC0FFD1FE80FF11D80E30C
:1056A0008083DD2041F0FE01ED0DF11D80810E941F
:1056B000AA12DA94F6CF2A960FB6F894DEBF0FBE80
:1056C000CDBFDF91CF911F910F91FF90EF90DF90B1
:1056D000CF90BF90AF909F908F9008952091BE067D
:1056E00020FF08C02BE832E441E25DE30E94B535BB
:1056F00044E001C043E00C94C52A2091BE0620FF7F
:1057000008C02BE832E441E25DE30E94B53541E098
:1057100001C040E00C94C52A43E00C94C52A0895CA
:105720000895CF93C82F811103C08FE398E044C040
:1057300087E398E00E94672A4C2F50E0FA013197E6
:10574000E631F10580F5E359FF4F0C94D0368FE137
:1057500098E002C08DE098E00E94672A2BC08BEF92
:1057600097E0FACF81EF97E0F7CF80EE97E0F4CFA4
:1057700081ED97E0F1CF80EB97E0EECF87EA97E0FD
:10578000EBCF8CE997E0E8CF89E897E0E5CF8BE7AE
:1057900097E0E2CF85E697E0DFCF81E597E0DCCFC9
:1057A0008DE397E0D9CF8BE297E00E94672A8C2F98
:1057B0000E94B92A88E297E0CF910C94672ACF9390
:1057C000C82F80E297E00E94672AC33091F03CF432
:1057D000C13061F0C230A1F48AE097E00FC0C4305C
:1057E00059F0C53069F480EE96E008C085E197E095
:1057F00005C087EF96E002C08CEE96E00E94672A13
:105800008DED96E00E94672A84EF91E0CF910C9491
:105810006427CF93C82F8BED96E00E94672A8C2FC8
:1058200090E0FC013197E830F105E8F4ED57FF4FC7
:105830000C94D03689EC96E014C085EB96E011C04C
:1058400083EA96E00EC08BE996E00BC082E996E011
:1058500008C087E896E005C08FE796E002C08CE6B6
:1058600096E00E94672A88E696E0CF910C94672A1A
:1058700085E496E00C94672A81E095E00C94672A11
:10588000FF920F931F93CF93DF938DEF94E00E94CD
:10589000672A8091B1060E94B92A84EE94E00E94A2
:1058A000672A8091B4060E94B92A86EC94E00E948F
:1058B000672A8091B2060E94B92A8DEA94E00E947C
:1058C000672A8091B2060E94B52A86EA94E00E9477
:1058D000672A8091B3060E94B92A8EE894E00E945C
:1058E000672A8091B3060E94B52A87E894E00E9457
:1058F000672A8091BE0682FB882780F90E94B92A18
:1059000086E694E00E94672A8091BE0686FB88277F
:1059100080F90E94B92A86E494E00E94672A809167
:10592000BE06881F8827881F0E94B92A86E294E055
:105930000E94672A8091B5060E94B92A80E194E00E
:105940000E94672A8091B5060E94B52A88E094E0FB
:105950000E94672A6091B6067091B7068091B806DA
:105960009091B9060E948C2B88EE93E00E94672AE2
:105970006091BA067091BB068091BC069091BD06FD
:105980000E948C2B8DEC93E00E94672A8091BE06CA
:1059900081700E94B92A80EB93E00E94672A80916F
:1059A000BE0685FB882780F90E94B92A85E993E025
:1059B0000E94672A8091BE0683FB882780F90E9497
:1059C000B92A8AE793E00E94672A8091BE068295F1
:1059D00081700E94B92A8EE593E00E94672A809127
:1059E000BF060E94B92A84E493E00E94672A80914E
:1059F000BF060E94B52A8CE393E00E94672A60915B
:105A0000C0067091C1068091C2069091C3060E94A3
:105A10008C2B8FE193E00E94672A6091C4067091FD
:105A2000C5068091C6069091C7060E948C2B82E025
:105A300093E00E94672A8091C8060E94B92A83EEEB
:105A400092E00E94672A6091CA067091CB0680910D
:105A5000CC069091CD060E948C2B8AEC92E00E949D
:105A6000672A84E6F82E10E0C1E8D6E000E088EC72
:105A700092E00E94672A802F8F0D0E94B92A86EC3F
:105A800092E00E94672A123071F01330B9F01130A1
:105A900029F0688179818A819B8117C06C857D8519
:105AA0008E859F8512C020E030E041E655E4688D88
:105AB000798D8A8D9B8D0E947E3307C08CA19DA11C
:105AC000AEA1BFA1BC01CD0190580E948C2B83ECEC
:105AD00092E00E94672A013029F0023031F081EC17
