:100000000C94A1040C94B3040C94B3040C94AC2889
:100010000C9489310C94B3040C94B3040C94B30481
:100020000C94B3040C94B3040C94B3040C94EC152A
:100030000C94B3040C94B3040C94B3040C94B30464
:100040000C9405180C94B3040C9480130C94421374
:100050000C94B3040C94B3040C94B3040C94B30444
:100060000C94B3040C94B3041B0BD312D312250BC2
:10007000320B3F0B4C0BD312500BD3125E0BD3122F
:10008000680B720BA30BD312D312D3127C0B890B08
:10009000960BC111D211F111D211F5110812FB11F9
:1000A0000112C121C721CA21CD21D221DA21E421A7
:1000B000892289228922EC21EF21F821012289223B
:1000C00089228922892289228922092213221F2238
:1000D00027222A2233223C22422289224B224E22EC
:1000E0005622602268228922892289228922892235
:1000F000892272227B22B42CB72CBC2CBF2CC22CA0
:10010000C52CC82CCB2CCE2CD12CD42CE02CE02C04
:10011000E02CE02CE02CE02CE02CE02CDA2CD72C8E
:10012000DD2C272D2A2D2D2D302D332D362D392D3B
:100130003C2D084AD73B3BCE016E84BCBFFDC12F8E
:100140003D6C74319ABD56833DDA3D00C77F11BEC8
:10015000D9E4BB4C3E916BAAAABE000000803F05CB
:10016000A84CCDB2D44EB93836A9020C50B99186FC
:1001700088083CA6AAAA2ABE000000803F003E0DC7
:100180000A002C4C696D3A002C52583A002C4275EA
:10019000663A002C002C57506F733A002C002C4DFF
:1001A000506F733A003C446F6F72003C4368656364
:1001B0006B003C416C61726D003C486F6D65003CAA
:1001C000486F6C64003C52756E003C49646C65007D
:1001D0005D0D0A005B302E396A5F70756E63685F73
:1001E00076322E32303135313032333A000D0A005A
:1001F0003D00244E005D0D0A0020460020540020E2
:100200004D3800204D3900204D3500204D34002060
:100210004D3300204D3200204D3100204D30002064
:10022000473934002047393300204739310020470F
:10023000393000204732300020473231002047312A
:100240003900204731380020473137002047004728
:1002500033382E00473830004733004732004731EB
:10026000004730005B005D0D0A005B544C4F3A00C4
:100270005D0D0A002C005B4739323A005D0D0A0023
:100280002C003A003330003238005B47005D0D0A25
:10029000003A002C005B5052423A00290D0A00201F
:1002A0006D61782074726176656C2C206D6D002014
:1002B000616363656C2C206D6D2F7365635E320026
:1002C000206D617820726174652C206D6D2F6D69D1
:1002D0006E002C20737465702F6D6D007A007900AC
:1002E00078002028003D002400202870756E636887
:1002F00020737465707065722064656C6179206923
:100300006E206D6963726F73290D0A002028707565
:100310006E63682073656E736F7220757020696EEE
:10032000766572742C20626F6F6C290D0A2434304C
:100330003D00202870756E63682073656E736F7260
:1003400020646F776E20696E766572742C20626F00
:100350006F6C290D0A2433333D00202870756E63BD
:1003600068206163747561746F7220757020696EA6
:10037000766572742C20626F6F6C290D0A243332FB
:100380003D00202870756E63682061637475617428
:100390006F7220646F776E20696E766572742C20A0
:1003A000626F6F6C290D0A2433313D00202870756F
:1003B0006E6368206D6F6465290D0A2433303D003B
:1003C0002028686F6D696E672070756C6C2D6F6684
:1003D000662C206D6D290D0A2432393D00202868D5
:1003E0006F6D696E67206465626F756E63652C2042
:1003F0006D736563290D0A2432373D002028686F2C
:100400006D696E67207365656B2C206D6D2F6D694E
:100410006E290D0A2432363D002028686F6D696E02
:100420006720666565642C206D6D2F6D696E290DE2
:100430000A2432353D00290D0A2432343D0020289B
:10044000686F6D696E672064697220696E76657287
:1004500074206D61736B3A002028686F6D696E6758
:10046000206379636C652C20626F6F6C290D0A2400
:1004700032333D00202868617264206C696D6974B4
:10048000732C20626F6F6C290D0A2432323D0020DC
:1004900028736F6674206C696D6974732C20626FA9
:1004A0006F6C290D0A2432313D0020287265706F6F
:1004B000727420696E636865732C20626F6F6C299B
:1004C0000D0A2432303D00202861726320746F6C65
:1004D0006572616E63652C206D6D290D0A243133C0
:1004E0003D0020286A756E6374696F6E20646576BE
:1004F000696174696F6E2C206D6D290D0A2431328B
:100500003D00290D0A2431313D00202873746174A7
:100510007573207265706F7274206D61736B3A0031
:10052000202870726F62652070696E20696E766532
:1005300072742C20626F6F6C290D0A2431303D00DB
:1005400020286C696D69742070696E7320696E76FD
:100550006572742C20626F6F6C290D0A24363D0081
:1005600020287374657020656E61626C6520696E09
:10057000766572742C20626F6F6C290D0A24353DEC
:1005800000290D0A24343D00202864697220706F10
:10059000727420696E76657274206D61736B3A00B7
:1005A000290D0A24333D0020287374657020706F74
:1005B000727420696E76657274206D61736B3A0097
:1005C0002028737465702069646C652064656C61B3
:1005D000792C206D736563290D0A24323D00202893
:1005E000737465702070756C73652C20757365630A
:1005F000290D0A24313D0024303D00242420287692
:10060000696577204772626C2073657474696E67E0
:1006100073290D0A2423202876696577202320700A
:100620006172616D6574657273290D0A2447202813
:100630007669657720706172736572207374617476
:1006400065290D0A24492028766965772062756935
:100650006C6420696E666F290D0A244E2028766925
:100660006577207374617274757020626C6F636B50
:1006700073290D0A24783D76616C756520287361B5
:100680007665204772626C2073657474696E6729A1
:100690000D0A244E783D6C696E652028736176657D
:1006A000207374617274757020626C6F636B290DB6
:1006B0000A24432028636865636B2067636F646561
:1006C000206D6F6465290D0A245820286B696C6CB5
:1006D00020616C61726D206C6F636B290D0A244878
:1006E000202872756E20686F6D696E67206379636C
:1006F0006C65290D0A7E20286379636C652073740C
:10070000617274290D0A2120286665656420686F6E
:100710006C64290D0A3F202863757272656E74201F
:10072000737461747573290D0A6374726C2D78206B
:10073000287265736574204772626C290D0A000D7A
:100740000A4772626C20302E396A5F70756E63687A
:100750005F7632205B27242720666F722068656CE5
:10076000705D0D0A005D0D0A00526573746F726949
:100770006E672064656661756C74730050676D20E8
:10078000456E6400436865636B20446F6F7200447C
:10079000697361626C656400456E61626C656400DA
:1007A00043617574696F6E3A20556E6C6F636B654B
:1007B0006400272448277C2724582720746F20753D
:1007C0006E6C6F636B00526573657420746F206389
:1007D0006F6E74696E7565005B000D0A00486F6D81
:1007E000696E67206661696C0050726F6265206691
:1007F00061696C0041626F727420647572696E6722
:10080000206379636C6500536F6674206C696D6951
:10081000740048617264206C696D697400414C41D8
:10082000524D3A20000D0A00496E76616C696420D1
:1008300067636F64652049443A00556E6465666974
:100840006E65642066656564207261746500556E2E
:10085000737570706F7274656420636F6D6D616E17
:1008600064004D6F64616C2067726F7570207669EB
:100870006F6C6174696F6E004C696E65206F766590
:1008800072666C6F7700486F6D696E67206E6F746B
:1008900020656E61626C656400416C61726D206CF4
:1008A0006F636B004E6F742069646C650045455042
:1008B000524F4D2072656164206661696C2E20552F
:1008C00073696E672064656661756C747300566148
:1008D0006C7565203C203320757365630053657427
:1008E00074696E672064697361626C656400566147
:1008F0006C7565203C203000496E76616C6964201F
:1009000073746174656D656E7400426164206E7508
:100910006D62657220666F726D61740045787065F6
:100920006374656420636F6D6D616E64206C6574C3
:10093000746572006572726F723A20006F6B0D0AF7
:10094000000011241FBECFEFD8E0DEBFCDBF26E0F0
:10095000A0E0B1E001C01D92A33EB207E1F70E9402
:10096000B5040C946A390C9400000E9410130E9484
:1009700095220E9483180E9478318DE1E7E2F5E02C
:10098000DF011D928A95E9F781E08093270578942D
:100990008091BE0684FF03C081E0809328050E94F9
:1009A000DE130E94D7080E94FF120E94AE340E94FC
:1009B00003130E945B280E949C2C0E94DB230E9450
:1009C00057180E942B270E94E908109227051092C1
:1009D000440510924605109229050E940E15DFCF9E
:1009E000EF92FF921F93CF93DF9300D000D0CDB74B
:1009F000DEB77C01122F8091BE0685FF0BC0C701B8
:100A000049835A836B837C830E94742A7C816B8127
:100A10005A81498180912805823031F149835A8376
:100A20006B837C830E94E3138091270581111CC096
:100A30000E942A2449815A816B817C81882339F064
:100A40000E94051549815A816B817C81E7CF212F56
:100A5000C7010F900F900F900F90DF91CF911F91D2
:100A6000FF90EF900C9432240F900F900F900F9006
:100A7000DF91CF911F91FF90EF9008952F923F92B9
:100A80004F925F926F927F928F929F92AF92BF929E
:100A9000CF92DF92EF92FF920F931F93CF93DF934A
:100AA000CDB7DEB7E7970FB6F894DEBF0FBECDBF68
:100AB0009C8B8B8B1B013A0109871A872B873C87FC
:100AC000AF8A2D961FAD2D972E962FAD2E97298B81
:100AD0002F963FAD2F973D8B84E0889EA001112477
:100AE0005A834983AB89BC89A40FB51FB98FA88FDE
:100AF000460D571D5B8F4A8FFA0180809180A2803E
:100B0000B3802D913D914D915C91C501B4010E943E
:100B100018356C8F7D8F8E8F9F8FF4E01F9F800123
:100B200011242B893C89200F311F39A328A3A3014D
:100B3000400F511F5BA34AA3DA014D905D906D9069
:100B40007C90F9012081318142815381C301B2013E
:100B50000E9418356CA37DA38EA39FA3A5019401C9
:100B600050582D873E874F87588BD301C201B0580C
:100B70008D839E83AF83B887E981FA81E20DF31DEF
:100B80002C8D3D8D4E8D5F8D608171818281938131
:100B90000E9417352B013C01F101E00FF11F2CA140
:100BA0003DA14EA15FA160817181828193810E94EC
:100BB00017354B015C01A30192016D857E858F8500
:100BC00098890E942F3869837A838B839C83A5013F
:100BD00094016D817E818F8198850E942F389B01C1
:100BE000AC0169817A818B819C810E94183569836F
:100BF0007A838B839C83A50194016D857E858F8587
:100C000098890E942F384B015C01A30192016D81EC
:100C10007E818F8198850E942F389B01AC01C50190
:100C2000B4010E94173529813A814B815C810E9471
:100C30008B352B013C019D89992399F02DEB37E3EE
:100C400046E055EBC301B2010E94F43787FD1DC099
:100C50002BED3FE049EC50E4C301B2010E9417358F
:100C600012C02DEB37E346E055E3C301B2010E9409
:100C7000F135181654F02BED3FE049EC50E4C30178
:100C8000B2010E9418352B013C018090BA06909069
:100C9000BB06A090BC06B090BD0629853A854B8561
:100CA0005C85CA01B9010E941835A50194010E9412
:100CB00017359B01AC01C501B4010E942F380E9479
:100CC000BC384B015C0120E030E040E05FE3C30151
:100CD000B2010E942F3829853A854B855C850E9498
:100CE0002F389F77A50194010E94F8350E94CE36D7
:100CF0000E9465367E8B6D8BDB01AB2B09F486C1C0
:100D00004B01A12CB12CBF89BB2361F0C501B401FB
:100D10000E9491369B01AC01C701B6010E942F3899
:100D20006B017C01C501B4010E9491364B015C014D
:100D30009B01AC01C301B2010E94F83569877A8733
:100D40008B879C87F989E4E0FE9FC00111242B89E1
:100D50003C89280F391F3A8B298BF101E80FF91FC5
:100D6000D9012D913D914D915C916081718182817C
:100D700093810E941735A50194010E94F8356CAB50
:100D80007DAB8EAB9FAB29853A854B855C85CA01CF
:100D9000B9010E942F389B01AC0160E070E080E057
:100DA00090E40E9417354B015C012BEA3AEA4AE2D3
:100DB0005EE369857A858B859C850E942F382B019F
:100DC0003C0120E030E040E850E4C501B4010E945D
:100DD00018359B01AC01C301B2010E942F3868A7EE
:100DE00079A78AA79BA720E030E040E05FE3C50138
:100DF000B4010E942F386CA77DA78EA79FA71982E8
:100E000001E010E0ED89FE890E171F0709F4FEC00E
:100E1000B981BC3008F04AC02CA53DA54EA55FA500
:100E20006D817E818F8198850E942F384B015C01F6
:100E300028A539A54AA55BA56D857E858F859889EE
:100E40000E942F38A50194010E941835B62EA72EB6
:100E5000982E892E2CA53DA54EA55FA56D857E8576
:100E60008F8598890E942F382B013C0128A539A530
:100E70004AA55BA56D817E818F8198850E942F3860
:100E80009B01AC01C301B2010E9417356D877E87BB
:100E90008F87988BE981EF5FE9838B2D9A2DA92DA0
:100EA000B82D8D839E83AF83B8876EC0B80180E074
:100EB00090E00E94913629853A854B855C850E9499
:100EC0002F384B015C010E94F5356D837E838F8343
:100ED0009887C501B4010E94B2384B015C01EA8DCC
:100EE000FB8D80819181A281B3819C01AD0150581D
:100EF00029833A834B835C83AAA1BBA18D919D91E9
:100F00000D90BC91A02D88AB99ABAAABBBAB2D814A
:100F10003E814F81588569817A818B819C810E94B5
:100F20002F382B013C01A501940168A979A98AA950
:100F30009BA90E942F389B01AC01C301B2010E9402
:100F400018356D877E878F87988BA50194016981FD
:100F50007A818B819C810E942F384B015C012D810D
:100F60003E814F81588568A979A98AA99BA90E94C9
:100F70002F389B01AC01C501B4010E9417356D8368
:100F80007E838F83988719822D853E854F8558896A
:100F90006C8D7D8D8E8D9F8D0E941835E88DF98D1D
:100FA00060837183828393832D813E814F81588535
:100FB0006CA17DA18EA19FA10E941835A8A1B9A105
:100FC0006D937D938D939C9313972CA93DA94EA966
:100FD0005FA9E989FA8960817181828193810E9488
:100FE0001835A989BA896D937D938D939C93139736
:100FF0002F89B701A6018B899C890E94F0048091FA
:101000002705811121C00F5F1F4FFCCE2F89B7012B
:10101000A601C101E7960FB6F894DEBF0FBECDBFA3
:10102000DF91CF911F910F91FF90EF90DF90CF90C4
:10103000BF90AF909F908F907F906F905F904F90F8
:101040003F902F900C94F004E7960FB6F894DEBF13
:101050000FBECDBFDF91CF911F910F91FF90EF9009
:10106000DF90CF90BF90AF909F908F907F906F90C8
:101070005F904F903F902F9008958F929F92AF92E4
:10108000BF92CF92DF92EF92FF924B015C01809171
:101090002805823009F447C020E030E040EA51E4FE
:1010A000C501B4010E942F380E94CE360E946536D9
:1010B0006B017C010E94901520E030E04AE754E487
:1010C000C501B4010E942F384B015C0182E38C9D65
:1010D000B0018D9D700D112480E090E00E9491364A
:1010E0009B01AC01C501B4010E9417350E94CE36A8
:1010F0000E946536CB010E941F28C114D10499F0CB
:101100000E94E31321E0C21AD108809127058111C2
:101110000AC08FEF90E722E0815090402040E1F735
:1011200000C00000EACFFF90EF90DF90CF90BF901B
:10113000AF909F908F9008950E94502881E00E9468
:10114000E0280E94E31380912705811104C00E94CA
:10115000E9080C945B2808958091440584FD26C01D
:101160009FB7F894809144058061809344059FBFA8
:101170000E9400130E94041380912805982F9C70F0
:1011800021F490912905913089F49FB7843029F496
:10119000F89480914605806204C0F89480914605D9
:1011A0008860809346059FBF0C94C115089580E424
:1011B000E7E4F5E0DF011D928A95E9F76BE675E05B
:1011C00080E00E942121811103C087E00C949E2CB5
:1011D00008956AE275E08FE595E00C9475332F92DF
:1011E0003F924F925F926F927F928F929F92AF92B7
:1011F000BF92CF92DF92EF92FF920F931F93CF9304
:10120000DF93CDB7DEB7AB970FB6F894DEBF0FBE56
:10121000CDBF98A38F8F8AE3E7E8F5E0DF011D9249
:101220008A95E9F78BE0E7E4F5E0A8E8B5E00190FE
:101230000D928A95E1F71D8E212C312CA12CB12C19
:1012400019A2512C1E8E66246394712C58E0452EF1
:101250009924939465E0862E8D8DEF8DF8A1E80F8B
:10126000F11D0081002309F491C29FEB900F9A3188
:1012700010F00C94C5128F5F8D8FAE01475E5F4FEB
:10128000BE01635E7F4F8F8D98A10E946D278823DA
:1012900011F40C94C712C98CDA8CEB8CFC8CC7014E
:1012A000B6010E94FD380E946536162F70E080E07E
:1012B00090E00E9493369B01AC01C701B6010E94E9
:1012C000173520E030E048EC52E40E942F380E94AD
:1012D00092380E946536073421F00D3409F450C16C
:1012E00099C1183209F432C1E8F4143160F41131B3
:1012F00008F0D7C0143009F45AC008F48EC01A3070
:10130000D9F10C94D3121C31B9F128F4163108F438
:10131000F7C00C94D3121E3179F1163209F47DC056
:101320000C94D3121D3309F40BC1A8F4153309F43E
:1013300061C040F41B3209F4ECC0113309F4E9C078
:101340000C94D3121C3310F00C94D3121653109338
:101350008E0589E000C11C3540F41A3508F0B0C094
:10136000103509F49BC00C94D3121C3529F01F359D
:1013700008F4BDC00C94D3126115710531F4BE8D13
:10138000B1110C94C912E1E0EE8F1C3199F038F4E0
:10139000143069F01A3009F0DBC082E02CC015333C
:1013A00049F11C3559F11E3109F0D2C013C0909299
:1013B0008705CEC06115710549F06A30710511F0DD
:1013C0000C94D31224E02093870509C0F3E0F09336
:1013D000870505C06115710521F48092870580E0BD
:1013E000BFC06A30710511F00C94D31236E030930F
:1013F0008705F5CF87E080938705AAC06115710541
:1014000049F06A30710511F00C94D31299E0909371
:101410008705E5CF40928705E2CFAE8DA1110C94F0
:10142000C912B2E0BE8F123089F028F4112359F0AE
:10143000113081F08FC0163281F0103579F1133000
:1014400009F088C007C01092880584C0EE8DE09333
:10145000880580C0109388057DC06E317105B1F09C
:1014600048F46431710511F00C94D312F4E0F09358
:10147000880512C06832710561F06233710511F0A0
:101480000C94D31237E03093880506C0809288050B
:1014900003C026E02093880581E062C04092880561
:1014A00059C0123129F0133139F010928C0502C065
:1014B00090928C0582E04FC082E080938C054BC0F7
:1014C0006115710549F41A3519F410928B0502C0A3
:1014D00090928B0583E044C06A30710511F00C9442
:1014E000D3121A3511F40C94D31284E039C01D358F
:1014F00019F49092890502C01092890585E02BC0ED
:10150000143119F490928A0502C010928A0586E07F
:1015100022C08E8D81110C94C912113331F41092B6
:101520008D0588E093E09E8F1BC06A30710511F035
:101530000C94D31290928D0588E0A3E0AE8F10C07A
:10154000672B11F00C94D3128AE00AC087E003C025
:1015500080E001C081E0672B19F087E10C94E6126E
:10156000F30102C0EE0FFF1F8A95E2F7CF019F0142
:101570002A213B21232B09F44AC085E10C94E61271
:10158000672B59F7163018F4133090F01EC01E3137
:10159000C1F030F488EF810F823030F10C94D31217
:1015A000143611F00C94D312909292058EE027C05D
:1015B000123039F01E3129F0111120C090928F05A0
:1015C0001DC082E080938F0519C0143029F01530BA
:1015D00039F09092910506C082E08093910502C097
:1015E000109291058CE00BC0193021F082E08093BD
:1015F000900502C0109290058DE001C08BE0930130
:1016000002C0220F331F8A95E2F7C901B1CFA82A81
:10161000B92A22CE802F992787FD9095A92FB92F1F
:10162000FC01E654F109E531F10508F0BCC7EC5CBA
:10163000FF4F0C944A39C0929305D0929405E092E2
:101640009505F092960580E07FC0C0929705D092F4
:101650009805E0929905F0929A0539A1316039A375
:1016600081E072C0C0929B05D0929C05E0929D05DE
:10167000F0929E0589A1826089A382E065C0C09234
:101680009F05D092A005E092A105F092A20599A134
:10169000946099A383E058C01093A30584E054C0DC
:1016A000C701B6010E9460366093A4057093A5053A
:1016B0008093A6059093A70585E046C0C092A80533
:1016C000D092A905E092AA05F092AB0586E03CC055
:1016D000C092AC05D092AD05E092AE05F092AF0598
:1016E00087E032C0C092B005D092B105E092B20559
:1016F000F092B30588E028C0C092B505D092B60537
:10170000E092B705F092B805A52DA1605A2E8AE0A7
:101710001BC0C092B905D092BA05E092BB05F09209
:10172000BC05B52DB2605B2E8BE00EC0C092BD052E
:10173000D092BE05E092BF05F092C005E52DE460B1
:101740005E2E8CE001C089E08301082E02C0000FEC
:10175000111F0A94E2F7980122213321232B09F06B
:101760001AC721E633E002C0359527958A95E2F73E
:1017700020FF09C020E030E0A901C701B6010E94A6
:10178000F13587FD0AC7202A312A66CD552029F078
:101790003E8D311102C082E08E8F25FE0EC08091F9
:1017A000A4059091A505A091A605B091A705803844
:1017B0009649A849B1050CF0F2C68091890581309F
:1017C00031F4FE8DF230A1F520FEF3C631C08091D8
:1017D000480581112DC020FE1BC080918A058130F3
:1017E00039F523E333E34BEC51E4609193057091B9
:1017F000940580919505909196050E942F386093ED
:10180000930570939405809395059093960510C069
:101810008091560590915705A0915805B0915905B2
:101820008093930590939405A0939505B0939605A6
:1018300030FC10C08091520590915305A091540541
:10184000B09155058093B0059093B105A093B20572
:10185000B093B30580918705813031F426FC02C036
:101860008CE1B4C6E89426F880918C05882341F079
:10187000813061F019A682E088A791E09FA30BC098
:1018800022E029A731E038A71FA205C0A1E0A9A73F
:1018900018A6B2E0BFA380918A05813021F0EE8DB9
:1018A000E33091F52AC035EBE32E35E0F32E00E06E
:1018B00010E0C52CD12CC601002E02C0959587954D
:1018C0000A94E2F780FF10C023E333E34BEC51E4CA
:1018D000D7016D917D918D919C910E942F38F701D8
:1018E00060837183828393830F5F1F4FF4E0EF0E59
:1018F000F11C03301105F9F6D2CF80918D058130AE
:1019000019F424E052124DC68CE0EBE6F5E0DE015E
:101910001D9601900D928A95E1F7B1FC09C03091B6
:1019200087053F8F3230B9F0383009F4B0C015C1A7
:1019300080918E05873010F08DE148C690914D055D
:10194000981769F3BE01635F7F4F0E9421218823AE
:1019500009F439C6E4CF511002C08AE137C6C1018B
:1019600080759927892B09F47BCF6091A805709128
:10197000A9058091AA059091AB050E94FD380E94AF
:1019800065366730C8F68091A305843129F082302E
:1019900009F009C627FC07C68FEA2822662319F03A
:1019A00061506F8F03C090918E059F8FBE016F5F56
:1019B0007F4F8F8D0E942121882309F404C6409017
:1019C000A3056090830570908405809085059090B4
:1019D0008605DE0111967D0195EBC92E95E0D92E85
:1019E0002FE5A22E25E0B22E00E010E0E52DF0E07C
:1019F000FEA3EDA38DA19EA1002E02C09595879513
:101A00000A94E2F780FF33C0F4E14F1226C0D501FB
:101A100058962D913D914D915C915B976D917D9183
:101A20008D919C910E941735F60120813181428170
:101A300053810E941735D7016D937D938D939C93AD
:101A400013970230A1F4A40193010E941735F70106
:101A500060837183828393830AC0F60180819181C0
:101A6000A281B381F70180839183A283B3830F5F47
:101A70001F4FF4E0EF0EF11C24E0C20ED11C34E045
:101A8000A30EB11C0330110509F0B4CF0FC15520CE
:101A900009F463CF6090830570908405809085057C
:101AA0009090860505EB15E08FE5C82E85E0D82ED1
:101AB0005E018DE0A80EB11CE12CF12CA52DB0E04B
:101AC000B8A3AF8F8F8D98A10E2C02C095958795E6
:101AD0000A94E2F780FF26C0F5012081318142811E
:101AE0005381D6016D917D918D919C910E94173506
:101AF000F80120813181428153810E941735D8013C
:101B00006D937D938D939C931397B2E0EB1214C069
:101B1000A40193010E941735F801608371838283C9
:101B200093830AC0F601808D918DA28DB38DF8014B
:101B300080839183A283B383FFEFEF1AFF0A0C5FC8
:101B40001F4F24E0C20ED11C34E0A30EB11C83E071
:101B5000E816F10409F0B6CFA8C09E8D933059F471
:101B6000AF8DA53009F48FC0A73009F499C0A33018
:101B700009F09BC080C0552099F340908B05809060
:101B8000830590908405A0908505B09086050FE5AB
:101B9000C02E05E0D02E05EB15E03E01BDE06B0E3A
:101BA000711CE12CF12CE52DF0E0FEA3EDA38DA13D
:101BB0009EA10E2C02C0959587950A94E2F780FDB0
:101BC0000BC0F60180819181A281B381F8018083ED
:101BD0009183A283B3833EC0FF8DF730D9F14110CA
:101BE00028C0D60158962D913D914D915C915B97FF
:101BF000F30160817181828193810E941835D8013F
:101C00002D913D914D915C910E941835F8016083B2
:101C1000718382839383F2E0EF121CC0A5019401CB
:101C20000E941835D8016D937D938D939C931397E3
:101C300011C0F6012081318142815381D8016D911B
:101C40007D918D919C910E941835F801608371837C
:101C500082839383FFEFEF1AFF0A24E0C20ED11CA8
:101C60000C5F1F4F34E0630E711C83E0E816F10433
:101C700009F09DCF75CF511001C01E8EBE016F5F60
:101C80007F4F86E007C0511001C01E8EBE016F5FFE
:101C90007F4F87E00E942121882309F494C405C066
:101CA00080918805823008F080C41F8E10918805CD
:101CB000183041F4552009F4B2C19E8D913009F0DD
:101CC00076C489C2AE8DA23009F0A9C11123D9F022
:101CD00020E030E0A9016091930570919405809116
:101CE0009505909196050E94F135882309F461C409
:101CF000143028F4123058F4113029F06CC2183026
:101D000008F44CC168C2511066C21E8E8BC15520AA
:101D100009F423CEFFA1EF2FF0E0FEA3EDA338A539
:101D2000232F30E03BA72AA781E090E03C0108A4E4
:101D300002C0660C771C0A94E2F70FA002C0880F5D
:101D4000991F0A94E2F7682A792A852D90E0862166
:101D50009721892B09F42FC4EE0FFF1FEE0FFF1FF1
:101D6000E957FA4FADA1BEA1AA0FBB1FAA0FBB1F17
:101D7000A15ABA4F2D913D914D915C9166A577A5E1
:101D800080A991A90E9417356B017C01EAA5FBA5EA
:101D9000EE0FFF1FEE0FFF1FE957FA4FAAA5BBA5D5
:101DA000AA0FBB1FAA0FBB1FA15ABA4F2D913D917D
:101DB0004D915C9166A577A580A991A90E941735E0
:101DC0004B015C0127FE40C0E89427F82091B5053F
:101DD0003091B6054091B7055091B80560915F0507
:101DE0007091600580916105909162050E94F135C6
:101DF00081111CC12091B9053091BA054091BB05F4
:101E00005091BC05609163057091640580916505F2
:101E1000909166050E94F135811108C12091BD05A0
:101E20003091BE054091BF055091C0056091670596
:101E3000709168058091690590916A050E94F1355D
:101E40008111F4C081E2C2C3F9A14F2E512C64204C
:101E50007520672809F4B1C321EF222280918A05F9
:101E6000813009F456C00AA51BA5000F111F000FF1
:101E7000111F09561A4FD8012D913D914D915C913A
:101E8000C501B4010E9417352B013C01ADA0BEA0D5
:101E9000AA0CBB1CAA0CBB1CF501E956FA4F5F014A
:101EA0002081318142815381C701B6010E941735DB
:101EB000A30192010E942A286B017C01D8012D9177
:101EC0003D914D915C91F501608171818281938199
:101ED0000E942A284B015C016093AC057093AD050C
:101EE0008093AE059093AF059B01AC01C701B6018D
:101EF0000E9417356B017C01E894F7F82AE037ED72
:101F000043EA5BE3C701B6010E94F43718164CF1AF
:101F100062C187E9682E85E0782E00E010E0C201FA
:101F2000002E02C0959587950A94E2F780FF10C0B5
:101F300023E333E34BEC51E4D3016D917D918D911B
:101F40009C910E942F38F301608371838283938375
:101F50000F5F1F4FF4E06F0E711C03301105F9F68F
:101F600082CF20E030E040E05FE3C701B6010E948D
:101F7000F43718160CF466CF2FE632E143E85AE343
:101F8000C501B4010E942F389B01AC01C701B60105
:101F90000E94F43718160CF455CF1DC1552009F4D2
:101FA000DCCC2091B5053091B6054091B705509134
:101FB000B80560915F057091600580916105909111
:101FC00062050E94F135811106C12091B905309159
:101FD000BA054091BB055091BC05609163057091B5
:101FE000640580916505909166050E94F135811127
:101FF000F2C02091BD053091BE054091BF055091C2
:10200000C0056091670570916805809169059091A0
:102010006A050E94F135882309F414CFDCC02E8DA7
:102020002111D9C0C1018E7D9C7FD8C080918A05C5
:102030008130B1F423E333E34BEC51E46091AC0520
:102040007091AD058091AE059091AF050E942F383B
:102050006093AC057093AD058093AE059093AF058A
:102060004090AC055090AD056090AE057090AF0506
:1020700020E030E040E850E4C301B2010E942F3874
:10208000A30192010E942F382B013C01A701960168
:10209000C701B6010E942F389B01AC01C301B201F8
:1020A0000E9417352B013C01A5019401C501B40123
:1020B0000E942F389B01AC01C301B2010E94173569
:1020C0002B013C0120E030E0A9010E94F13587FDA1
:1020D0007CC2C301B2010E94BC382B013C01A501A6
:1020E0009401C701B6010E942A289B01AC01C301DB
:1020F000B20190580E94F8352B013C01809188056F
:10210000833021F477FA709477F870948091AC055D
:102110009091AD05A091AE05B091AF0589A39AA3AA
:10212000ABA3BCA320E030E0A901BC01CD010E941B
:10213000F13587FF11C077FA709477F8709489A110
:102140009AA1ABA1BCA1B0588093AC059093AD050A
:10215000A093AE05B093AF050DA11EA1000F111FF6
:10216000000F111F09561A4FA3019201C501B401B6
:102170000E942F389B01AC01C701B6010E941735A0
:1021800020E030E040E05FE30E942F38D8016D93FB
:102190007D938D939C9313970AA51BA5000F111F88
:1021A000000F111F09561A4FA3019201C701B60172
:1021B0000E942F389B01AC01C501B4010E94183563
:1021C00020E030E040E05FE30E942F38F8016083B8
:1021D000718382839383C1018E7D907E892B09F068
:1021E000EEC18091A4059091A505A091A605B0919E
:1021F000A70580935B0590935C05A0935D05B09364
:102200005E058091890580934805809193059091A2
:102210009405A0919505B0919605809356059093ED
:102220005705A0935805B0935905C090B005D090BC
:10223000B105E090B205F090B305A7019601609159
:1022400052057091530580915405909155050E9457
:10225000F1358823C1F080915005882321F0B70122
:10226000A6010E9402138091B0059091B105A09142
:10227000B205B091B3058093520590935305A09396
:102280005405B09355058091B40580935A0580910B
:10229000910590915005981771F040915205509119
:1022A000530560915405709155050E940213809169
:1022B0009105809350058091900590914F05981756
:1022C00031F00E9406138091900580934F05809114
:1022D0008705813051F46091A8057091A90580911E
:1022E000AA059091AB050E943D0880918C058093D2
:1022F0004B0580918A05809349053E8D3330F9F472
:1023000080918D0580934C05813089F48091BD05C5
:102310009091BE05A091BF05B091C0058093830543
:1023200090938405A0938505B093860508C010920C
:102330008305109284051092850510928605809180
:102340008E0590914D05981759F080934D058CE0BE
:10235000FE013D96ABE6B5E001900D928A95E1F75E
:1023600080918B0580934A058091870590E0FC0160
:102370003297E830F10508F04BC0E75BFF4F0C9453
:102380004A39BE016F5F7F4F8F8D0E94CF1F8091B2
:102390004D059F8D89133CC08CE0FE013196ABE664
:1023A000B5E01AC0AE8DAA2349F020E040E050E02D
:1023B00060E87FEB85EB95E00E94F00420E040E0D0
:1023C00050E060E87FEBCE0101960E94F0048CE0C3
:1023D000FE013196AFE5B5E001900D928A95E1F7E7
:1023E00017C06FE575E086E003C06FE575E087E034
:1023F0000E94CF1F0DC08CE0E5EBF5E0A7E7B5E04C
:10240000EBCF8CE0E7E7F5E0DF011D928A95E9F775
:102410008091880580934705883009F464C0BE8D9B
:10242000B23009F060C0813011F1D8F0823071F122
:10243000833009F04FC0C0905605D0905705E0900A
:102440005805F09059050091AC051091AD0520910B
:10245000AE053091AF051F9289A58F9398A59F93E4
:102460002BC020E040E050E060E87FEB0AC04091E4
:102470005605509157056091580570915905209166
:10248000480585EB95E00E94F00424C0C0905605F5
:10249000D0905705E0905805F09059050091AC0593
:1024A0001091AD052091AE053091AF0581E08F937D
:1024B000E9A5EF93F8A5FF938FA0A090480547E901
:1024C00055E065EB75E08FE595E00E943E050F90C5
:1024D0000F900F908CE0E5EBF5E0AFE5B5E00190F3
:1024E0000D928A95E1F78091920580935105813094
:1024F00021F40E94F6341092510580918F0580934B
:102500004E05882309F45DC00E94901590914E05F8
:1025100080912805913069F48230A1F19FB7F89439
:10252000809144058860809344059FBF0E94E31317
:1025300029C091E09093470510924B0510924A05EF
:102540001092480510924D051092500510924F05BB
:102550008230A9F0BE01635F7F4F80E00E9421219D
:10256000882389F18CE0FE013D96ABE6B5E0019051
:102570000D928A95E1F70E9400130E94041387E0F0
:102580000E94162D10924E051CC081E01FC082E0F3
:102590001DC088E11BC089E119C084E017C08BE130
:1025A00015C085E213C084E111C08EE10FC08FE138
:1025B0000DC086E10BC080E209C083E207C084E25F
:1025C00005C080E003C087E001C082E2AB960FB691
:1025D000F894DEBF0FBECDBFDF91CF911F910F9159
:1025E000FF90EF90DF90CF90BF90AF909F908F9033
:1025F0007F906F905F904F903F902F900895089537
:10260000089508950895089508950895089590915E
:10261000020180910301891708F48058891B0895ED
:10262000E0ECF0E08081826080831092C50080E160
:102630008093C400E1ECF0E0808180618083808140
:10264000886080838081806880830895E0910101A3
:1026500091E09E0F903409F490E0209100019213D4
:1026600005C02091440524FFF8CF0895F0E0EF5312
:10267000FA4F8083909301018091C1008062809322
:10268000C10008951F920F920FB60F9211248F93DD
:102690009F93EF93FF9380910001E82FF0E0EF53B9
:1026A000FA4F90819093C6008F5F803409F480E0E8
:1026B0008093000190910101891305C08091C100B0
:1026C0008F7D8093C100FF91EF919F918F910F902B
:1026D0000FBE0F901F9018959091020180910301F9
:1026E000891761F0E92FF0E0EF5FF94F80819F5F7C
:1026F000903809F490E09093020108958FEF0895C7
:102700001F920F920FB60F9211242F933F934F9366
:102710005F936F937F938F939F93AF93BF93EF9349
:10272000FF938091C6008F33A9F050F4883109F1EE
:10273000813211F59FB7F89480914405886015C0E7
:10274000803471F08E37C1F49FB7F89480914405BE
:1027500082600BC09FB7F89480914405816005C0EA
:102760009FB7F894809144058062809344059FBF91
:1027700014C00E94AC0811C0E091030191E09E0FCB
:10278000903809F490E020910201921731F0F0E0C6
:10279000EF5FF94F808390930301FF91EF91BF9119
:1027A000AF919F918F917F916F915F914F913F91E9
:1027B0002F910F900FBE0F901F90189580910301DD
:1027C000809302010895EF92FF920F931F93CF938E
:1027D000DF93D1E008E080E2F82E10E190E4E92EEA
:1027E000C0914605CC2389F1D0932805C1FF02C0D2
:1027F00081E00FC0C2FF02C082E00BC0C3FF02C075
:1028000083E007C0C4FF02C084E003C0C5FF03C06B
:1028100085E00E94EC2CC0FD08C08FB7F894909121
:102820004605109246058FBF10C081E00E94162D0C
:102830009FB7F894809144058F7E809344059FBF95
:102840008091440584FFFCCFE8CFC0914405CC23A0
:1028500009F4BCC0C4FF04C081E080932705CEC04A
:10286000C0FF0AC00E9479309FB7F8948091440558
:102870008E7F809344059FBF8C2F887609F43CC0DF
:1028800080912805882349F0982F9C7769F188303A
:1028900021F40E94A518D093290580912805811163
:1028A00003C092E090932905C6FF09C0883011F457
:1028B000E092280580912905886080932905C3FF4F
:1028C00005C08091280585FF10932805C5FF0CC021
:1028D00086E00E94162D8091290581FDC4608460E8
:1028E00080932905F09228059FB7F89480914405BC
:1028F0008779809344059FBFC1FF48C08C2F88769D
:10290000E9F580912805882331F08075B9F180912F
:10291000290581FF33C08091290582FF1CC0809169
:102920005005882371F040915205509153056091F4
:102930005405709155050E94011380EA9FE00E94A2
:102940001F2880914F05882331F00E94051388EEDF
:1029500093E00E941F280E940024892B59F0809147
:10296000290583FD07C0009328050E94C7180E940F
:10297000A11502C010922805109229059FB7F8945E
:10298000809144058D7F809344059FBFC2FF1EC088
:1029900080912805807371F08091290582FF04C021
:1029A0000E9400130E940413809129058260809385
:1029B000290504C010922905109228059FB7F894A4
:1029C000809144058B7F809344059FBF80912805AB
:1029D0008C7711F00E94C71880912805803251F43D
:1029E0008091290581FF06C00E94C231811102C079
:1029F00010932805809129058111F2CEDF91CF91A6
:102A00001F910F91FF90EF9008959FB7F8948091D8
:102A100044058260809344059FBF0895CF93DF9360
:102A20000E94452D80912805813021F482E00E948A
:102A3000162D2FC00E94C231882341F08091440599
:102A40008062809344050E94E31302C0109228051F
:102A500084E091E00E94C4311CC08D3079F0DD2308
:102A600099F1893221F4D13009F04CC0D0E00E94B4
:102A70006C138F3F09F448C08A3079F7EC2FF0E0EF
:102A8000EC5FFE4F10820E94E3138091270588239C
:102A900011F0C0E0EBCF80910401811103C00E94CE
:102AA0009E2CF7CF843229F484E091E00E94E33138
:102AB000F6CF80912805813011F489E0F0CF84E0D1
:102AC00091E00E94EF08EBCF813288F28F3279F2E9
:102AD0008832B1F08B33B1F0CF3428F08BE00E9414
:102AE0009E2CC0E0C4CF2C2F30E0CF5F9FE9980F21
:102AF000F901EC5FFE4F9A3108F480528083B7CF22
:102B0000D1E0B5CFD2E0B3CF0E9405150E94E31308
:102B100080912705882309F4AACFDF91CF910895EA
:102B20000E9405150E94E31380912705811108C0BA
:102B30000E940024892BB1F780912805883091F3F9
:102B400008958091BE0682FF02C0289A01C028988D
:102B5000809128058C70A1F0809184018093980168
:102B600080918501809397018091B106880F8450F0
:102B700081958093960180916F00826080936F00B1
:102B8000089580916F008D7F80936F008091810008
:102B9000887F816080938100109283018091B406C8
:102BA0008F3F21F490914605992349F09091280593
:102BB000943029F090E00E941F2881E001C080E05D
:102BC0009091BE0692FF02C091E08927882311F000
:102BD000289A0895289808951F920F920FB60F9281
:102BE00011242F933F934F935F936F937F938F9312
:102BF0009F93AF93BF93CF93DF93EF93FF93809116
:102C000083018111EFC19BB180919801807E9F71FA
:102C1000892B8BB98BB1837E90919701892B8BB9CE
:102C20008091960186BD82E085BD81E0809383011D
:102C300078948091AA019091AB01892B09F0A4C0EE
:102C40008091880190918701981709F492C0E091D2
:102C5000880186E0E89FF0011124E455FE4FF093CF
:102C6000AB01E093AA0183819481909389008093C2
:102C70008800808191819093A6018093A501A28113
:102C80008091A7018A1771F1A093A70181E1A89F04
:102C9000D0011124A053BE4FB093A901A093A80165
:102CA0001D968D919D910D90BC91A02DB695A795E7
:102CB000979587958093910190939201A0939301AA
:102CC000B093940180938D0190938E01A0938F0116
:102CD000B09390018093890190938A01A0938B0116
:102CE000B0938C01C091A801D091A9018091840179
:102CF0009881892780939801258189819A81AB8168
:102D0000BC81022E04C0B695A795979587950A9425
:102D1000D2F78093990190939A01A0939B01B0936D
:102D20009C018D819E81AF81B885022E04C0B6952D
:102D3000A795979587950A94D2F780939D019093D4
:102D40009E01A0939F01B093A00189859A85AB85D0
:102D5000BC8504C0B695A795979587952A95D2F717
:102D60008093A1019093A201A093A301B093A40129
:102D70000BC00E94C1159FB7F894809144058460F0
:102D8000809344059FBF2EC10E949D2C10929701F5
:102D90008091990190919A01A0919B01B0919C0121
:102DA0004091890150918A0160918B0170918C0151
:102DB000840F951FA61FB71F8093890190938A01E6
:102DC000A0938B01B0938C01E091A801F091A9012F
:102DD0004585568567857089481759076A077B07B7
:102DE00068F524E0209397014585568567857089AD
:102DF000841B950BA60BB70B8093890190938A01D6
:102E0000A0938B01B0938C01208180912A05909131
:102E10002B05A0912C05B0912D0525FF04C001972D
:102E2000A109B10903C00196A11DB11D80932A0516
:102E300090932B05A0932C05B0932D0580919D01B7
:102E400090919E01A0919F01B091A00140918D01B0
:102E500050918E0160918F0170919001840F951FA8
:102E6000A61FB71F80938D0190938E01A0938F01B1
:102E7000B093900145855685678570894817590735
:102E80006A077B0778F520919701286020939701C6
:102E90004585568567857089841B950BA60BB70BF6
:102EA00080938D0190938E01A0938F01B093900138
:102EB000208180912E0590912F05A0913005B09131
:102EC000310526FF04C00197A109B10903C001968D
:102ED000A11DB11D80932E0590932F05A093300561
:102EE000B09331058091A1019091A201A091A3011D
:102EF000B091A40140919101509192016091930190
:102F000070919401840F951FA61FB71F80939101A4
:102F100090939201A0939301B093940145855685B7
:102F200067857089481759076A077B0778F52091EC
:102F300097012061209397014585568567857089A3
:102F4000841B950BA60BB70B809391019093920174
:102F5000A0939301B09394012081809132059091C8
:102F60003305A0913405B091350527FF04C00197C2
:102F7000A109B10903C00196A11DB11D80933205BD
:102F800090933305A0933405B093350580912805BF
:102F9000843039F48091430590919701892380937F
:102FA00097018091A5019091A60101979093A601A8
:102FB0008093A501892B69F41092AB011092AA01AC
:102FC000809188018F5F80938801863011F4109280
:102FD00088018091850190919701892780939701BD
:102FE00010928301FF91EF91DF91CF91BF91AF914B
:102FF0009F918F917F916F915F914F913F912F9111
:103000000F900FBE0F901F9018951F920F920FB642
:103010000F9211248F939F939BB1809185018C71A6
:10302000937E892B8BB915BC9F918F910F900FBE0A
:103030000F901F901895FF920F931F93CF93DF93DC
:103040001092850110928401C0E0D0E00C2F1C2F5B
:103050002091B20630E08C2F0C2E02C035952795BA
:103060000A94E2F720FF07C0F09085010E94A22297
:103070008F29809385012091B30630E002C03595F9
:1030800027951A95E2F720FF08C010918401802F40
:103090000E94AC22812B809384012196C330D105FC
:1030A000A9F6DF91CF911F910F91FF9008950E9493
:1030B000C1158BE2E4E5F1E0DF011D928A95E9F7A5
:1030C00083E2E9E8F1E0DF011D928A95E9F71092C9
:1030D000820110928101109288011092870181E093
:1030E00080938601109283010E941B188BB1837E0E
:1030F00090918501892B8BB98BB18F71909184014F
:10310000892B8BB908958AB18C618AB9209A8AB1CA
:10311000806E8AB9E1E8F0E080818F7E80838081D3
:1031200088608083E0E8F0E080818C7F808380810C
:103130008F708083EEE6F0E08081887F808314BC0E
:1031400015BC8081816080830895CF93DF93C09107
:103150008101D09182012097B9F081E080935501DF
:1031600060916B0170916C0180916D0190916E0185
:103170009B01AC010E942F38698B7A8B8B8B9C8BC7
:103180001092820110928101DF91CF9108952F92C8
:103190003F924F925F926F927F928F929F92AF92E7
:1031A000BF92CF92DF92EF92FF920F931F93CF9334
:1031B000DF93CDB7DEB7E5970FB6F894DEBF0FBE4D
:1031C000CDBF80912805807709F40AC220E030E065
:1031D000A90160916B0170916C0180916D019091DA
:1031E0006E010E94F1358111FBC103C680918101FE
:1031F00090918201892B09F4FAC180918701F6E050
:10320000F89FF0011124E455FE4FFE83ED83809179
:103210005401828320918101309182013E872D8764
:10322000D9019596BC91BCA7F901F6A1FDA7D901DA
:103230009796BC91BEA7F901F0A5FFA720915E016A
:1032400030915F0140916001509161016CA57DA5B5
:103250008B2F9F2F0E94173568A779A78AA79BA756
:1032600020E030E0A9010E94F13587FF04C018A6D4
:1032700019A61AA61BA620917701288F30917801F4
:10328000398F409179014A8F50917A015B8F8091FB
:103290006F018C8F909170019D8FA0917101AE8F05
:1032A000B0917201BF8FE0917B01E8A3F0917C01A6
:1032B000F9A320917D012AA330917E013BA3409187
:1032C00067014CA3509168015DA3809169018EA3B1
:1032D00090916A019FA320917301309174014091F4
:1032E00075015091760128AB39AB4AAB5BAB30919D
:1032F0006B01398340916C01498720906D013090BA
:103300006E01509166015F878CA58C8B9DA59D8B6E
:10331000AEA5AE8BBFA5BF8B3EE3C32E33ECD32E41
:103320003EE2E32E39E3F32E188A198A1A8A1B8AA1
:1033300026013701EF85E111B4C3AD85BE859196B5
:103340002D913D914D915C919497C701B6010E94DA
:103350002F384B015C0120E030E040E05FE30E9449
:103360002F389B01AC0169817985C1010E94183514
:103370009B01AC01C701B6010E942F389B01AC0133
:103380006C897D898E899F890E9417358B018DAB51
:103390009CAB288D398D4A8D5B8D0E94F13587FF5E
:1033A00086C3288D398D4A8D5B8D6CA57DA58EA534
:1033B0009FA50E9417359B01AC010E9418356B0137
:1033C0007C012C8D3D8D4E8D5F8D69817985C1018C
:1033D0000E9418359B01AC01C701B6010E94F83567
:1033E0006B017C0128A139A14AA15BA1688D798D6F
:1033F0008A8D9B8D0E94F135882309F455C3B1E075
:10340000BF87FC8DF9832D8D29872E8C3F8C088DED
:10341000198D3A8D3DAB4B8D4CABA7019601688958
:1034200079898A899B890E941835688B798B8A8B68
:103430009B8BA30192010E94F13587FDF2C328A561
:1034400039A54AA55BA5B8018DA99CA90E94F437AE
:1034500018160CF4DCC389819985D10180936B0126
:1034600090936C01A0936D01B0936E01FF85F09372
:10347000660140905A0150905B0160905C01709031
:103480005D0198014DA95CA9C301B2010E942F38CA
:1034900069837A838B839C830E94DE356B017C0178
:1034A0006091560170915701809158019091590196
:1034B0000E94DE354B015C01A70196010E94173581
:1034C0000E94653669877A878B879C87E985FA85AC
:1034D000AD81BE81ED93FC93309709F4CDC320916B
:1034E00062013091630140916401509165016889E6
:1034F00079898A899B890E9418352B013C01298191
:103500003A814B815C81C501B4010E9417359B0152
:10351000AC01C301B2010E94F8354B015C01298165
:103520003A814B815C81C701B6010E941735A50124
:1035300094010E942F38609362017093630180931D
:1035400064019093650120EC31EE44E65EE4C50130
:10355000B4010E942F380E94DE350E946536603D1E
:10356000B7E07B078105910508F0ACC3ED81FE81D2
:103570001582AD81BE8114967C936E9313978091D2
:103580008601809387018F5F863009F4D4C38093CE
:103590008601209167013091680140916901509145
:1035A0006A01B8018DA99CA90E94F43718160CF085
:1035B000C5C3E0918101F0918201C801ADA9BCA908
:1035C00085A396A3A7A3B0A789819A81AB81BC816B
:1035D0008093560190935701A0935801B0935901DD
:1035E0009091880180918601981300CE02C40E94B8
:1035F00000241C019093820180938101009709F4BB
:10360000F8C38091550110912805882319F0109274
:103610005501BEC0809154018F5F853019F08093B1
:10362000540102C010925401E091540121E12E9FF7
:10363000F0011124E053FE4FF0938001E0937F01ED
:10364000D1018C91808311964D915D916D917C910A
:10365000149703E0440F551F661F771F0A95D1F793
:10366000418352836383748315964D915D916D916F
:103670007C91189783E0440F551F661F771F8A952A
:10368000D1F7458356836783708719964D915D9175
:103690006D917C911C9793E0440F551F661F771F17
:1036A0009A95D1F741875287638774871D966D91EC
:1036B0007D918D919C9150976B017C0123E0CC0C06
:1036C000DD1CEE1CFF1C2A95D1F7C586D686E78641
:1036D000F08A0E949136609356017093570180934F
:1036E000580190935901F10125A136A147A150A598
:1036F0000E94F8359B01AC0160935A0170935B0105
:1037000080935C0190935D0160E070E080EA9FE34C
:103710000E94F83560935E0170935F0180936001B1
:103720009093610110926201109263011092640102
:1037300010926501812F8077E1F0609173017091A3
:103740007401809175019091760160936B01709383
:103750006C0180936D0190936E019B01AC010E94FE
:103760002F38D10151966D937D938D939C935497EF
:103770000FC0F10161897289838994890E94BC38E4
:1037800060936B0170936C0180936D0190936E0157
:1037900010926701109268011092690110926A01FB
:1037A000D10191968D909D90AD90BC909497A5017C
:1037B000940160E070E080E09FE30E94F8352B0107
:1037C0003C011077F101C5A0D6A0E7A0F0A4112319
:1037D00009F44DC0F2E0F0936601D10151962D91AC
:1037E0003D914D915C9154972D833E834F83588733
:1037F0000E942F389B01AC01C701B6010E9417350A
:103800002B013C0120E030E0A9010E94F13587FF47
:103810001DC0A5019401C501B4010E941835A7017E
:1038200096010E942F389B01AC016D817E818F81B2
:1038300098850E9417350E94BC386093730170937D
:1038400074018093750190937601D7CC4092670103
:10385000509268016092690170926A01109273013E
:10386000109274011092750110927601C6CC1092DC
:103870006601C0927701D0927801E0927901F092CE
:103880007A010E9410244B015C01609373017093D4
:10389000740180937501909376019B01AC010E94A5
:1038A0002F3869837A838B839C83009181011091E7
:1038B0008201D80195962D913D914D915C919897FB
:1038C00029873A874B875C8751962D913D914D9181
:1038D0005C9154972D833E834F8358879B01AC01A5
:1038E0006D817E818F8198850E9417359B01AC0187
:1038F000C301B2010E942F389B01AC0169857A8512
:103900008B859C850E94183520E030E040E05FE325
:103910000E942F386B017C0120E030E0A9010E9459
:10392000F43718160CF0ACC029853A854B855C85B8
:10393000C701B6010E94F13587FF8EC0F801858C62
:10394000968CA78CB0A029813A814B815C81C501FE
:10395000B4010E9417359B01AC01C301B2010E9462
:103960002F3860937B0170937C0180937D0190934D
:103970007E01A70196010E94F13587FF3DC0C50178
:10398000B4010E94BC3860936F0170937001809302
:10399000710190937201A50194016D817E818F81E7
:1039A00098850E94F135811104C0F1E0F093660121
:1039B00024CC2D813E814F815885C501B4010E94E0
:1039C00017359B01AC01C301B2010E942F389B0146
:1039D000AC016091770170917801809179019091AB
:1039E0007A010E9417356093770170937801809374
:1039F000790190937A0101CCC0927701D09278013D
:103A0000E0927901F0927A01C0927B01D0927C0120
:103A1000E0927D01F0927E01D80191966D917D91A9
:103A20008D919C9194979B01AC010E941835A70140
:103A300096010E942F3829813A814B815C810E9436
:103A400018350E94BC3860936F01709370018093A9
:103A5000710190937201D1CBB2E0B0936601809175
:103A60006B0190916C01A0916D01B0916E018093FA
:103A70006F0190937001A0937101B0937201BDCB5F
:103A800010927701109278011092790110927A01C8
:103A900080926F0190927001A0927101B0927201B8
:103AA000ACCBE13061F041C0E2E0EF87AACCA501E8
:103AB000940169817985C1010E9418357CC0A701F4
:103AC00096016C8D7D8D8E8D9F8D0E942F389B0170
:103AD000AC016C897D898E899F890E9417358B0185
:103AE0008DAB9CAB28A139A14AA15BA10E94F13505
:103AF00087FF93CC28A139A14AA15BA16C897D895C
:103B00008E899F890E9417352C8D3D8D4E8D5F8D3E
:103B10000E94F8356B017C0108A119A15AA15DAB87
:103B20008BA18CAB92E09F8778CCAD85BE859196BA
:103B30002D913D914D915C919497C701B6010E94E2
:103B40002F384B015C019B01AC0169817985C10172
:103B50000E94F43718169CF520E030E040E05FE367
:103B6000C501B4010E942F389B01AC0169817985A0
:103B7000C1010E9417359B01AC01C701B6010E942B
:103B80002F389B01AC016C897D898E899F890E94A9
:103B900017358B018DAB9CAB2CA13DA14EA15FA134
:103BA0000E94F43718165CF4A501940169817985A7
:103BB000C1010E941735698379871C012ECC2CA185
:103BC0003DA14EA15FA16C897D898E899F890E944C
:103BD00017359B01AC010E9418356B017C0128A9A7
:103BE00039A94AA95BA969817985C1010E94183563
:103BF0009B01AC01C701B6010E94F8356B017C0145
:103C00000CA11DA1BEA1BDABEFA1ECAB06CC2EE378
:103C100033EC4EE259E3C301B2010E9418352B0187
:103C20003C01288939894A895B89C301B2010E9414
:103C300017356B017C012CA13DA14EA15FA1B801FC
:103C40008DA99CA90E94F43718167CF0898199856A
:103C5000D10180936B0190936C01A0936D01B0939F
:103C60006E013F853093660104CC0C8B1D8B4DA9F2
:103C70004E8B5CA95F8B5ECB80912805807709F421
:103C80002ECC10926B0110926C0110926D0110926B
:103C90006E01109262011092630110926401109201
:103CA0006501C0925601D0925701E0925801F092FE
:103CB0005901A3019201C701B6010E94F835AD85F3
:103CC000BE8570C0603AFFE07F078105910510F462
:103CD000E1E009C06034FFE17F078105910510F440
:103CE000E2E001C0E3E0AD81BE811596EC93AD81C9
:103CF000BE8115962C911597022E04C09695879536
:103D0000779567950A94D2F7E985FA8502C0EE0F98
:103D1000FF1F2A95E2F7ED93FC9361157105F1E021
:103D20008F07910508F425CC2FEF3FEFED81FE8141
:103D30003483238324CC109286012BCC20E030E006
:103D4000A901B8018DA99CA90E94F43718160CF09E
:103D500049C010926B0110926C0110926D0110928B
:103D60006E01109262011092630110926401109230
:103D70006501C0925601D0925701E0925801F0922D
:103D80005901009181011091820120915A013091D5
:103D90005B0140915C0150915D01C701B6010E9439
:103DA000F835D80195966D937D938D939C93989754
:103DB000E5960FB6F894DEBF0FBECDBFDF91CF9171
:103DC0001F910F91FF90EF90DF90CF90BF90AF9039
:103DD0009F908F907F906F905F904F903F902F902B
:103DE0000C94652710928201109281010E94EC23AD
:103DF000F7CBE5960FB6F894DEBF0FBECDBFDF91CF
:103E0000CF911F910F91FF90EF90DF90CF90BF90D7
:103E1000AF909F908F907F906F905F904F903F906A
:103E20002F900895F999FECF92BD81BD81E08FBB9F
:103E300080B50895F894F999FECF92BD81BD81E0D7
:103E40008FBB40B54627842F992787FD9095262F55
:103E500030E082239323892B39F06F3F19F060BD46
:103E600084E006C084E104C0442321F060BD84E204
:103E70008FBBF99A789408959F92AF92BF92CF9298
:103E8000DF92EF92FF920F931F93CF93DF938C01FA
:103E90007A016B01C40ED51EEB01912C5C01A61AB0
:103EA000B70ACE018A0D9B1DCC15DD0591F091104E
:103EB00009C0692D772767FD7095272F221F2227BC
:103EC000221F01C021E06991922E960E0E941A1FB6
:103ED000E8CF692DC8018E0D9F1DDF91CF911F91F5
:103EE0000F91FF90EF90DF90CF90BF90AF909F9099
:103EF0000C941A1F9F92AF92BF92CF92DF92EF92D3
:103F0000FF920F931F93CF93DF938B017A016C0184
:103F1000C40ED51EEC01912C5B01A81AB90AC5018B
:103F20008C0F9D1FCC15DD0591F00E94121F911082
:103F300009C0292D332727FD3095232F221F222743
:103F4000221F01C021E0922E980E8993E8CFC8016C
:103F50008E0D9F1D0E94121F21E030E0981611F077
:103F600020E030E0C901DF91CF911F910F91FF90C8
:103F7000EF90DF90CF90BF90AF909F90089521E594
:103F8000829FC001112440E550E09D5F0C943C1FCE
:103F900040E550E0BC018EEA93E00C943C1F2DE01C
:103FA000829FC00111244CE050E09E5F0C943C1FA6
:103FB0006AE080E090E00E941A1F48E550E061E866
:103FC00076E081E090E00C943C1FEF92FF920F931B
:103FD0001F93CF93DF93CDB7DEB72C970FB6F8942E
:103FE000DEBF0FBECDBF182F80FFC7C08AE0809311
:103FF000B10689E18093B4061092B2061092B3061E
:1040000083E08093B5068AE097EDA3E2BCE380935A
:10401000B6069093B706A093B806B093B9068FE69C
:1040200092E1A3E0BBE38093BA069093BB06A09312
:10403000BC06B093BD061092BF0680E090E0A8ECED
:10404000B1E48093C0069093C106A093C206B093DA
:10405000C30640E050E06AEF73E44093C406509317
:10406000C5066093C6067093C7068AEF90E09093EA
:10407000C9068093C80680E090E0A0E8BFE3809383
:10408000CA069093CB06A093CC06B093CD061092AF
:10409000BE0680E090E0AAE7B3E4809381069093A7
:1040A0008206A0938306B09384068093850690933E
:1040B0008606A0938706B09388068093890690931E
:1040C0008A06A0938B06B0938C0640938D0650937E
:1040D0008E0660938F0670939006409391065093DE
:1040E00092066093930670939406409395065093BE
:1040F0009606609397067093980640E050EA6CE04D
:1041000077E44093990650939A0660939B067093C8
:104110009C0640939D0650939E0660939F06709365
:10412000A0064093A1065093A2066093A306709345
:10413000A40640E050E068E473EC4093A506509379
:10414000A6066093A7067093A8064093A90650930D
:10415000AA066093AB067093AC064093AD065093ED
:10416000AE066093AF067093B0061092CF06109221
:10417000D0061092CE060E94D81F11FF10C0CE01AB
:1041800001967C018CE0F70111928A95E9F700E035
:10419000B701802F0E94CF1F0F5F0830C9F712FFB1
:1041A0000AC060E080E093E00E941A1F60E081E5B1
:1041B00093E00E941A1F13FF05C060E08EEA93E0AF
:1041C0000E941A1F2C960FB6F894DEBF0FBECDBF0B
:1041D000DF91CF911F910F91FF90EF9008951F9362
:1041E000CF93DF93182FEB0181E5189FB0011124C5
:1041F0007D5F40E550E0CE010E947A1F892B39F4A3
:104200001882BE01812F0E94BF1F80E001C081E0A3
:10421000DF91CF911F910895CF93DF93EC0140E59B
:1042200050E06EEA73E00E947A1F892B31F4188205
:10423000CE010E94C81F80E001C081E0DF91CF91D4
:1042400008951F93CF93DF93182FEB018DE0189FF4
:10425000B00111247E5F4CE050E0CE010E947A1F35
:10426000892B59F48CE0FE0111928A95E9F7BE0181
:10427000812F0E94CF1F80E001C081E0DF91CF91AC
:104280001F91089580E090E00E94121F8A3059F437
:1042900048E550E061E070E081E896E00E947A1F16
:1042A00021E0892B09F420E0822F0895CF92DF923C
:1042B000EF92FF92CF93DF93C82F6A017B0120E03A
:1042C00030E0A901C701B6010E94F13587FD1FC189
:1042D000C43608F445C02CE92C0F80E02330B8F533
:1042E00030E0823079F0F901EE0FFF1FEE0FFF1F73
:1042F000833011F1813019F0EF57F94F23C0E357A4
:10430000F94F20C0E901CC0FDD1FCC0FDD1FC756D0
:10431000D94F20E030E040E752E4C701B6010E94E7
:104320002F3820E030E040E752E40E942F386883C5
:1043300079838A839B83E7C0EB55F94FF7FAF094B2
:10434000F7F8F094C082D182E282F382DCC08F5F02
:104350002A3008F4DEC0843009F4DBC02A50BECF16
:10436000C701B6010E94FD380E9465368C2F90E08F
:104370008A32910508F0CDC0FC01EF5AFF4F0C9432
:104380004A39633008F4C7C06093B106BCC060937B
:10439000B406B9C06093B20602C06093B3060E942F
:1043A0001B18B1C08091BE06662311F0846007C05F
:1043B0008B7F05C08091BE06662321F080648093C8
:1043C000BE06A1C08F7BFBCF8091BE06662311F095
:1043D0008068F5CF8F77F3CF6093B50694C0C09215
:1043E000B606D092B706E092B806F092B9068BC036
:1043F000C092BA06D092BB06E092BC06F092BD060F
:1044000082C08091BE06662311F08160D8CF8E7F76
:10441000D6CF8091BE06662321F084FF7EC08062E5
:10442000CECF8F7DCCCF8091BE06662311F0886001
:1044300001C0877F8093BE060E945B2864C0809184
:10444000BE06662311F08061BACF8F7CB8CF60932F
:10445000BF0659C0C092C006D092C106E092C20603
:10446000F092C30650C0C092C406D092C506E09236
:10447000C606F092C70647C070E07093C906609305
:10448000C80641C0C092CA06D092CB06E092CC06C4
:10449000F092CD0638C06093CE0635C08091CF062D
:1044A000662311F0826009C08D7F07C08091CF061E
:1044B000662311F0816001C08E7F8093CF0623C0F8
:1044C0008091D006662311F0826007C08D7F05C001
:1044D0008091D006662321F081608093D00613C0BE
:1044E0008E7FFBCFC092D106D092D206E092D30647
:1044F000F092D40608C0C092D506D092D606E092BB
:10450000D706F092D8060E94D81F80E007C084E04A
:1045100005C083E003C086E001C08AE0DF91CF914F
:10452000FF90EF90DF90CF9008950E94422181117B
:1045300008C087E00E949E2C8FEF0E94E51F0C941C
:104540004D2D0895882321F0813021F488E00895CD
:1045500084E0089580E10895882321F0813021F4DA
:1045600080E4089580E2089580E80895882321F08A
:10457000813021F484E0089582E0089588E0089570
:104580004F925F926F927F928F929F92AF92BF9263
:10459000CF92DF92EF92FF920F931F93CF93DF930F
:1045A00010914302111101C012E11150009141021A
:1045B000101709F4EFC089E2189FE0011124CB5BCA
:1045C000DD4F8D889E88AF88B88C69A17AA18BA1B8
:1045D0009CA19B01AC010E9418352DA13EA14FA1C9
:1045E00058A50E942F386B017C019B01AC01B401DE
:1045F000C5010E94F13587FF02C064017501A60163
:10460000B701498B5A8B6B8B7C8B111101C012E166
:1046100077247A94710E701619F029E2622E27C061
:1046200080914402081351C00E94A5184EC0679C97
:10463000800111240B5B1D4F711002C092E1792E95
:104640007A9480914402781202C00E94A518F80161
:10465000C588D688E788F08CA701960161897289A0
:10466000838994890E94F135811106C0E801809107
:1046700041027812DCCF29C0F80161A172A183A1A7
:1046800094A19B01AC010E941835F80125A136A127
:1046900047A150A50E942F3829893A894B895C8906
:1046A0000E9418354B015C01A70196010E94F1356B
:1046B000F80187FF05C0818A928AA38AB48AD6CF7F
:1046C000C18AD28AE38AF48AD1CF60904102F9E2AA
:1046D0006F9E800111240B5B1D4F77247394760C21
:1046E00082E1781201C0712C5090430289E2482E79
:1046F000751409F44DC0479CE0011124CB5BDD4FDC
:10470000F80181889288A388B488C988DA88EB8800
:10471000FC88A7019601C501B4010E94F13587FF0D
:1047200023C0F80161A172A183A194A19B01AC01F6
:104730000E941835F80125A136A147A150A50E9475
:104740002F389B01AC01C501B4010E9418354B0103
:104750005C01A70196010E94F13587FF05C0898A97
:104760009A8AAB8ABC8A672C2D893E894F89588DDD
:1047700069897A898B899C890E94F135811101C0F0
:10478000672C7394F2E17F1201C0712C8E01B0CFBF
:1047900060924102DF91CF911F910F91FF90EF90B6
:1047A000DF90CF90BF90AF909F908F907F906F9051
:1047B0005F904F9008958CE1E5E2F2E0DF011D92F9
:1047C0008A95E9F7109244021092430281E08093A7
:1047D0004202109241020895909144028091430256
:1047E000891769F081E0890F823109F480E0209116
:1047F0004102921302C080934102809344020895C3
:104800008091440290914302981739F029E2829FE7
:10481000C00111248B5B9D4F089580E090E00895C6
:10482000E0914402EF5FE23109F4E0E0809143025D
:10483000E81761F089E2E89FF0011124EB5BFD4F7E
:1048400061897289838994890C94BC3860E070E036
:10485000CB01089581E020914402909142022913F6
:1048600080E008952F923F924F925F926F927F92D5
:104870008F929F92AF92BF92CF92DF92EF92FF9270
:104880000F931F93CF93DF93CDB7DEB7AD970FB6DE
:10489000F894DEBF0FBECDBF142F052F6B8F7C8F1A
:1048A000822E2091430239E2239F10011124F1014D
:1048B000EB5BFD4F1F01158616861786108A15A221
:1048C00016A217A210A6108249E956E766E97EE70C
:1048D00041A352A363A374A35C0141E8E42E46E024
:1048E000F42E9E01235F3F4F38A32F8F85E292E085
:1048F0009E8F8D8F6F01FE013196FAA3E9A3912C53
:10490000F50161917191819191915F01F701208190
:104910003181428153810E942F380E94FF37EF8DF1
:10492000F8A16193719381939193F8A3EF8FED8D2B
:10493000FE8D4190519061907190FE8FED8F6419C2
:104940007509860997092B013C0197FF07C044248C
:1049500055243201461A570A680A790AF60141823B
:10496000528263827482F10125853685478550899C
:10497000421653066406750610F429013A01F10146
:10498000458656866786708A0E949336F701208195
:104990003181428153810E94F8352B013C01E9A10C
:1049A000FAA16193719381939193FAA3E9A320E013
:1049B00030E0A9010E94F13587FF0AC0F101908122
:1049C000892D9DA70E94AC229DA5892BF101808392
:1049D000A3019201C301B2010E942F38F10125A168
:1049E00036A147A150A50E941835F10165A376A311
:1049F00087A390A79394F4E0EF0EF11C24E0C20E7D
:104A0000D11C33E093127CCF0E94BC386B017C0137
:104A1000F10165A376A387A390A785859685A785D1
:104A2000B089892B8A2B8B2B09F4FCC120E030E064
:104A3000A901612F702F8B8D9C8D0E94F13587FD10
:104A400021C0882061F0A7019601612F702F8B8D06
:104A50009C8D0E942F38162F072F8B8F9C8F20E064
:104A600030E040E85FE3612F702F8B8D9C8D0E94BA
:104A7000F13587FF0DC010E000E030E83B8F8FE399
:104A80008C8F06C019E906E7F6E9FB8F2EE72C8F1D
:104A9000A701960160E070E080E89FE30E94F8358E
:104AA00069A77AA78BA79CA7E1E3F2E0FAA3E9A3A1
:104AB0002DE836E038A32F8FCE010D969A8F898F7F
:104AC000FE013196FE8FED8FC12CD12C7601ED8D3C
:104AD000FE8D80809180A280B38020E030E0A9012B
:104AE000C501B4010E94F135882309F47FC029A5CE
:104AF0003AA54BA55CA5C501B4010E942F384B0116
:104B00005C01ED8DFE8D60837183828393839B01B5
:104B1000AC0160E070E080E89FE30E94F8352B0173
:104B20003C01E89477F8EF8DF8A120813181428132
:104B30005381C301B2010E942F386BA37CA38DA3C4
:104B40009EA39B01AC01612F702F8B8D9C8D0E94C9
:104B5000F13587FF06C01BA30CA3FB8DFDA32C8D95
:104B60002EA3F101F1A1FB8FF101F2A1FC8FF10164
:104B7000F3A1FFA3F101F4A1F8A7EF8DF8A124851B
:104B8000358546855785C301B2010E942F383B0108
:104B90008C019B01AC016B8D7C8D8FA198A50E942F
:104BA000F13587FF04C06B8C7C8C0FA118A5C30165
:104BB000D801F10181A392A3A3A3B4A3E9A1FAA10F
:104BC0002081318142815381C501B4010E942F3877
:104BD0009B01AC01C701B6010E9417356B017C0136
:104BE0001BA10CA1FDA1FB8F2EA12C8F8D8D9E8D65
:104BF00004969E8F8D8FE9A1FAA13496FAA3E9A3BA
:104C00002F8D38A12C5F3F4F38A32F8FE98DFA8D60
:104C10008E179F0709F05BCF909143028091440269
:104C2000981306C0F101118A128A138A148A0BC0E4
:104C300024EA30E74DE75FE3C701B6010E94F4378D
:104C4000181634F4F101118E128E138E148E5BC07F
:104C500024EA30E74DE75FEBC701B6010E94F43765
:104C6000181644F034EAC32E30E7D32E3DE7E32E86
:104C70003FEBF32EA701960160E070E080E89FE330
:104C80000E94173520E030E040E05FE30E942F38BB
:104C90000E94BC386B017C012091B6063091B706AA
:104CA0004091B8065091B906F10161A172A183A1AA
:104CB00094A10E942F38A70196010E942F384B0122
:104CC0005C01A701960160E070E080E89FE30E942C
:104CD00017359B01AC01C501B4010E94F8356B0189
:104CE0007C0120E030E0A9010E94F13587FF04C07B
:104CF000C12CD12CE12CF12CA601B701F101418F7F
:104D0000528F638F748F212F302F4B8D5C8D612FCD
:104D1000702F8B8D9C8D0E942F38162F072FF82E09
:104D2000E92E862F902FAF2DBE2DF101858F968F06
:104D3000A78FB0A3A18CB28CC38CD48C60903D02A1
:104D400070903E0280903F02909040029301A40137
:104D5000612F702F8F2D9E2D0E94F13587FD0BC086
:104D60009301A401B501C6010E94F13587FD11C070
:104D7000530164010EC0212F302F4F2D5E2DB50140
:104D8000C6010E94F13587FD04C0A12EB02ECF2CA4
:104D9000DE2CC501D601F101858B968BA78BB08FD8
:104DA0008CE0FE013196A1E3B2E001900D928A956C
:104DB000E1F7812F902FAF2DBE2D80933D02909370
:104DC0003E02A0933F02B09340028CE0FE013D966C
:104DD000A5E2B2E001900D928A95E1F7809142023E
:104DE000809343028F5F823109F480E08093420216
:104DF000AD960FB6F894DEBF0FBECDBFDF91CF9159
:104E00001F910F91FF90EF90DF90CF90BF90AF90E8
:104E10009F908F907F906F905F904F903F902F90DA
:104E20000C94C022AD960FB6F894DEBF0FBECDBF76
:104E3000DF91CF911F910F91FF90EF90DF90CF9076
:104E4000BF90AF909F908F907F906F905F904F90AA
:104E50003F902F90089580912A0590912B05A09165
:104E60002C05B0912D058093250290932602A093E6
:104E70002702B093280280912E0590912F05A091D2
:104E80003005B09131058093290290932A02A093B6
:104E90002B02B0932C028091320590913305A091A2
:104EA0003405B091350580932D0290932E02A09386
:104EB0002F02B093300208958091430290914402F2
:104EC000891708F48E5E891B08950E94A5188091A9
:104ED0004402809341020C94C0226F927F928F9281
:104EE0009F92AF92BF92CF92DF92EF92FF920F9379
:104EF0001F93CF93DF937C018B016A01FB018081BB
:104F0000F701E80FF11D2081EF012D3229F42296DF
:104F100021816624639407C02B3211F0219602C0D0
:104F200022962181612CA12CB12C712C60E070E0C3
:104F3000CB01FE0130ED932E920E29E02915C8F029
:104F4000B39428E02B1588F0A1107A94A5E0B0E086
:104F50009B01AC010E945039660F771F881F991F73
:104F6000690D711D811D911D0BC0A11009C07394A5
:104F700007C02EEF921207C0A11005C0AA24A39467
:104F800021962081D6CFBB2009F449C00E949136DA
:104F90004B015C0120E030E0A9010E94F13588233B
:104FA00061F18FEF78166CF42AE037ED43E25CE3B1
:104FB000C501B4010E942F384B015C0173947394B6
:104FC000F0CF78120BC02DEC3CEC4CEC5DE3C5014E
:104FD000B4010E942F384B015C010FC0772069F0AB
:104FE00020E030E040E251E4C501B4010E942F38D6
:104FF0004B015C017A9417149CF3662021F0B7FAF8
:10500000B094B7F8B094F60180829182A282B38204
:10501000CE19DF09C150F801C08381E001C080E0F2
:10502000DF91CF911F910F91FF90EF90DF90CF9084
:10503000BF90AF909F908F907F906F900895009752
:1050400041F0EFE9FFE03197F1F700C00000019770
:10505000F6CF08958F929F92AF92BF92CF92DF9238
:10506000EF92FF9269017A019B01AC010E942F38F7
:105070004B015C01A7019601C701B6010E942F38C0
:105080009B01AC01C501B4010E941835FF90EF905F
:10509000DF90CF90BF90AF909F908F900C94BC38D2
:1050A000EBE6F0E08081817F8083E8E6F0E08081BC
:1050B0008E7F8083089584B1817F84B985B18E60AD
:1050C00085B98091BE0683FF0BC080916B008E6016
:1050D00080936B00809168008160809368000895E0
:1050E0000C945028CF92DF92FF920F931F93CF938F
:1050F000DF931F92CDB7DEB793B19E708091BE064D
:1051000086FD02C08EE098279923D9F0C12CD12CBE
:10511000F12C01E010E08C2D99830E94B622998138
:10512000892339F098010C2C01C0220F0A94EAF768
:10513000F22A8FEFC81AD80AE3E0CE16D10459F745
:1051400001C0F12C8F2D0F90DF91CF911F910F9106
:10515000FF90DF90CF9008951F920F920FB60F929D
:1051600011242F933F934F935F936F937F938F936C
:105170009F93AF93BF93EF93FF9380912805813066
:1051800071F08091460581110AC00E94AC089FB75A
:10519000F894809146058360809346059FBFFF91F8
:1051A000EF91BF91AF919F918F917F916F915F919F
:1051B0004F913F912F910F900FBE0F901F90189518
:1051C0002F923F924F925F926F927F928F929F9217
:1051D000AF92BF92CF92DF92EF92FF920F931F9305
:1051E000CF93DF93CDB7DEB766970FB6F894DEBFE7
:1051F0000FBECDBF582E8091270581115CC185EA75
:10520000A82E86E0B82E9E01235F3F4F190100E0D3
:1052100010E0C12CD12C7601652C712C802F0E94BE
:10522000A222D1018D931D01C301002E02C09595CC
:1052300087950A94E2F780FF1AC020E030E040EC46
:105240005FEBF50160817181828193810E942F382B
:10525000688B472E4C01262F372FAC01C701B601B2
:105260000E94F43718161CF0C888D42C74010F5F04
:105270001F4FF4E0AF0EB11C0330110579F680909A
:10528000C4069090C506A090C606B090C70624E05C
:10529000288B01E06AE275E0CE0101960E94753329
:1052A0002090BF06312CFE0131968AE295E09E8B5C
:1052B0008D8B80E090E0412C10E0B701A601705882
:1052C0009301082E02C0359527950A94E2F720FF36
:1052D00028C04394AD89BE891D921D921D921C92D7
:1052E00013979101082E02C0359527950A94E2F78D
:1052F00020FF03C0002319F007C0002329F0C0825B
:10530000D182E282F38204C040835183628373833B
:105310002DE030E02C0F3D1F280F391FD9012C91B3
:10532000122B019634962D893E892C5F3F4F3E8B80
:105330002D8B8330910521F6642D70E080E090E0A4
:105340000E9491360E94BC389B01AC01C501B4019A
:105350000E942F38AB01BC0110934305498B5A8B37
:105360006B8B7C8B0E942B2720E049895A896B89A3
:105370007C89CE0101960E9432240E94C7180E94A7
:10538000A1150023E9F00E947228FE013D9620E05D
:1053900030E090E06191462F412359F0AC01022E9C
:1053A00002C0559547950A94E2F740FF02C0609508
:1053B00016232F5F3F4F2330310561F710934305CC
:1053C0000E94C718809144058473C1F08091440500
:1053D000807329F00E94AC080E94E3136CC0011195
:1053E00065C00E9472288521A9F79FB7F894809123
:1053F00044058B7F809344059FBF04C0812F8C712F
:1054000009F0BFCF0E9457180E94DB238091C80685
:105410009091C9060E941F2831E00327C9F020E0BF
:1054200030E040EA50E46091CA067091CB0680916A
:10543000CC069091CD060E942F386B017C018090A4
:10544000C0069090C106A090C206B090C30610C0DE
:10545000C090CA06D090CB06E090CC06F090CD0666
:105460008090C4069090C506A090C606B090C7066E
:1054700088898150888B81110DCFEAE2F5E080E0C8
:1054800090E09301082E02C0359527950A94E2F723
:1054900020FF04C01082118212821382019634967A
:1054A0008330910571F70E942B2705C08091440538
:1054B00082FF9BCF8FCF66960FB6F894DEBF0FBEEC
:1054C000CDBFDF91CF911F910F91FF90EF90DF90B3
:1054D000CF90BF90AF909F908F907F906F905F9094
:1054E0004F903F902F9008958F929F92AF92BF92CE
:1054F000CF92DF92EF92FF920F931F93CF93DF93A0
:10550000C090BF06D12C25EAE22E26E0F22E8C01B7
:10551000C0E0D0E0C6010C2E02C0959587950A9494
:10552000E2F7F80180809180A280B38020E030E033
:10553000A90180FF15C0C501B4010E94F13587FDA6
:1055400020C0F70180819181A281B3819C01AD01CE
:105550005058C501B4010E94F437181694F040C0A9
:10556000C501B4010E94F43718165CF0F7012081E0
:10557000318142815381C501B4010E94F13587FF19
:105580002FC0809128058830C1F00E94AC089FB7D9
:10559000F894809146058560809346059FBFDF9112
:1055A000CF911F910F91FF90EF90DF90CF90BF9020
:1055B000AF909F908F900C94E3139FB7F8948091D5
:1055C00044058860809344059FBF0E94E313809147
:1055D000270581110FC0809128058111F6CFD5CF05
:1055E0002196F4E0EF0EF11C0C5F1F4FC330D10584
:1055F00009F090CFDF91CF911F910F91FF90EF9025
:10560000DF90CF90BF90AF909F908F900895CF93F1
:10561000DF93EC018991882319F00E942613FACFB9
:10562000DF91CF910895CF93DF93FC018491EF0137
:105630002196882321F00E942613FE01F7CFDF91E7
:10564000CF910895EF92FF920F931F93CF93DF9323
:105650001F92CDB7DEB7262FEDB6FEB66DB77EB77B
:10566000641B71090FB6F8947EBF0FBE6DBF0DB7F6
:105670001EB70F5F1F4F302FF8019E2F931B9417FB
:1056800028F4622F0E941C399193F7CF442361F0D4
:10569000F801E40FF11D31978081805D49830E94FC
:1056A000261349814150F2CF0FB6F894FEBE0FBECB
:1056B000EDBE0F90DF91CF911F910F91FF90EF9072
:1056C000089548E062E00C94222B8A3020F0843662
:1056D00020F442E003C041E001C043E06AE00C94E2
:1056E000222BBF92CF92DF92EF92FF920F931F93E4
:1056F000CF93DF93CDB7DEB72A970FB6F894DEBF0E
:105700000FBECDBF611571058105910591F480E350
:105710002A960FB6F894DEBF0FBECDBFDF91CF91B2
:105720001F910F91FF90EF90DF90CF90BF900C945E
:10573000261320E03AE0C32ED12CE12CF12CBB241F
:10574000B394B20E01E010E00C0F1D1F020F111DEB
:10575000A70196010E942839F8016083B901CA01A6
:10576000611571058105910511F02B2DE8CFBB2046
:1057700049F0FE01EB0DF11D8081805D0E94261332
:10578000BA94F5CF2A960FB6F894DEBF0FBECDBF00
:10579000DF91CF911F910F91FF90EF90DF90CF900D
:1057A000BF9008958F929F92AF92BF92CF92DF9257
:1057B000EF92FF920F931F93CF93DF93CDB7DEB796
:1057C0002A970FB6F894DEBF0FBECDBF6B017C01E8
:1057D000142F20E030E0A9010E94F13587FF07C0B7
:1057E0008DE20E942613F7FAF094F7F8F094012F57
:1057F000023060F020E030E048EC52E4C701B6012E
:105800000E942F386B017C010250F2CF10FF0AC0BA
:1058100020E030E040E251E4C701B6010E942F3899
:105820006B017C0120E030E040E05FE3C701B6019E
:105830000E9418350E946036E1E0F0E0EC0FFD1F99
:10584000E10FF11D2EE22083D12C5AE0852E912C00
:10585000A12CB12C6115710581059105A9F0D1121A
:1058600001C0D394EE24E394F12CEC0EFD1EED0C5C
:10587000F11CA50194010E942839605DF701608345
:10588000B901CA01D394E6CF80E3D11648F4E1E030
:10589000F0E0EC0FFD1FED0DF11D8083D394F5CFEB
:1058A0008D2DD1120BC0D394D3948F5FE1E0F0E043
:1058B000EC0FFD1FE80FF11D80E38083DD2041F038
:1058C000FE01ED0DF11D80810E942613DA94F6CFC2
:1058D0002A960FB6F894DEBF0FBECDBFDF91CF91F1
:1058E0001F910F91FF90EF90DF90CF90BF90AF90FE
:1058F0009F908F9008952091BE0620FF08C02BE84E
:1059000032E441E25DE30E942F3844E001C043E00D
:105910000C94D22B2091BE0620FF08C02BE832E465
:1059200041E25DE30E942F3841E001C040E00C9469
:10593000D22B43E00C94D22B08950895CF93C82F17
:10594000811103C08CE399E044C084E399E00E9494
:10595000132B4C2F50E0FA013197E631F10580F519
:10596000E558FF4F0C944A398CE199E002C08AE077
:1059700099E00E94132B2BC088EF98E0FACF8EEEAF
:1059800098E0F7CF8DED98E0F4CF8EEC98E0F1CF72
:105990008DEA98E0EECF84EA98E0EBCF89E998E0D1
:1059A000E8CF86E898E0E5CF88E798E0E2CF82E6A6
:1059B00098E0DFCF8EE498E0DCCF8AE398E0D9CF9F
:1059C00088E298E00E94132B8C2F0E94652B85E2C1
:1059D00098E0CF910C94132BCF93C82F8DE198E0D2
:1059E0000E94132BC33091F03CF4C13061F0C230FF
:1059F000A1F487E098E00FC0C43059F0C53069F4D5
:105A00008DED97E008C082E198E005C084EF97E053
:105A100002C089EE97E00E94132B8AED97E00E9466
:105A2000132B84EF91E0CF910C941F28CF93C82FB4
:105A300088ED97E00E94132B8C2F90E0FC013197AA
:105A4000E830F105E8F4EF56FF4F0C944A3986EC44
:105A500097E014C082EB97E011C080EA97E00EC097
:105A600088E997E00BC08FE897E008C084E897E0EA
:105A700005C08CE797E002C089E697E00E94132BEF
:105A800085E697E0CF910C94132B8FE397E00C946D
:105A9000132B8BEF95E00C94132BFF920F931F9316
:105AA000CF93DF9387EF95E00E94132B8091B1068F
:105AB0000E94652B8EED95E00E94132B8091B40619
:105AC0000E94652B80EC95E00E94132B8091B2061A
:105AD0000E94652B87EA95E00E94132B8091B20605
